:100000000C945D000C9400030C94D9020C948500B0
:100010000C9485000C9485000C9485000C9485004C
:100020000C9485000C9485000C9485000C9485003C
:100030000C9485000C9485000C9485000C9485002C
:100040000C948F020C9485000C945D020C94370282
:100050000C9485000C9485000C9485000C9485000C
:100060000C9485000C94850000000008000201003B
:100070000003040700000000000000000000000072
:10008000250028002B0000000000240027002A0083
:10009000040404040404040402020202020203032E
:1000A0000303030301020408102040800102040836
:1000B00010200102040810204C0311241FBECFEFB2
:1000C000D8E0DEBFCDBF11E0A0E0B1E0EEE9F9E09D
:1000D00002C005900D92A831B107D9F721E0A8E13F
:1000E000B1E001C01D92A73CB207E1F710E0CDE5F9
:1000F000D0E004C02197FE010E94C204CC35D10794
:10010000C9F70E947C030C94CD040C9400008093EA
:10011000100058E04B9BFECF5B9844E04A9540307E
:10012000E9F707FD5B9A000047E04A954030E9F7A0
:1001300007FF5B9A000F42E04A954030E9F75A9575
:10014000503051F708958093100058E04B9BFECF3C
:100150005B9844E04A954030E9F707FD5B9A000060
:1001600047E04A954030E9F707FF5B9A000F42E00D
:100170004A954030E9F75A95503051F75B9846E080
:1001800000004A954030E1F75B9A089590E0FC0149
:10019000EC55FF4F2491FC01E057FF4F84918823D9
:1001A00099F090E0880F991FFC01EA57FF4FA59145
:1001B000B491FC01E458FF4F859194918FB7F89466
:1001C000EC91E22BEC938FBF0895CF92DF92EF92E8
:1001D000FF920F931F93CF93DF936C017A018B01F2
:1001E000C0E0D0E0CE15DF0581F0D8016D918D0122
:1001F000D601ED91FC910190F081E02DC6010995A9
:10020000892B11F02196EECF7E01C701DF91CF91AE
:100210001F910F91FF90EF90DF90CF900895089578
:1002200080E090E00895FC01538D448D252F30E04F
:10023000842F90E0821B930B541710F0CF960895F3
:1002400001970895FC01918D828D981761F0828D40
:10025000DF01A80FB11D5D968C91928D9F5F9F73FA
:10026000928F90E008958FEF9FEF0895FC01918D9C
:10027000828D981731F0828DE80FF11D858D90E009
:1002800008958FEF9FEF0895FC01918D228D892FA6
:1002900090E0805C9F4F821B91098F73992708958E
:1002A00088E291E00E94440121E0892B09F420E0DA
:1002B000822F0895FC01848DDF01A80FB11DA35A80
:1002C000BF4F2C91848D90E001968F739927848F76
:1002D000A689B7892C93A089B1898C918370806499
:1002E0008C93938D848D981306C00288F389E02D3A
:1002F00080818F7D80830895EF92FF920F931F93EB
:10030000CF93DF93EC0181E0888F9B8D8C8D9813C8
:1003100005C0E889F989808185FD26C0F62E0B8D00
:1003200010E00F5F1F4F0F731127E02E8C8DE81226
:100330000CC00FB607FCFACFE889F989808185FFE8
:10034000F5CFCE010E945A01F1CF8B8DFE01E80F4F
:10035000F11DE35AFF4FF0829FB7F8940B8FEA89A3
:10036000FB89808180620AC09FB7F894EE89FF897B
:100370006083E889F98980818370806480839FBF6E
:1003800081E090E0DF91CF911F910F91FF90EF906E
:100390000895CF93DF93EC01888D8823C9F0EA8913
:1003A000FB89808185FD05C0A889B9898C9186FD6E
:1003B0000FC00FB607FCF5CF808185FFF2CFA8896B
:1003C000B9898C9185FFEDCFCE010E945A01E7CF0C
:1003D000DF91CF91089580E090E0892B29F00E9471
:1003E000500181110C940000089508959AB18091F4
:1003F000C50189238AB957E04B99FECF46E000003A
:100400004A954030E1F7000C4B9B02C0039402C0B8
:100410004B9BFECF5A95503079F749E000004A9542
:100420004030E1F78091000080931901809119011B
:10043000811108C085E00E94870080E00E9487004B
:1004400082E00EC0809126010E94870080912501E4
:100450000E948700809123010E94870080912401DF
:100460000E94A30082E08CBB08950E94C8041F92E2
:100470000F920FB60F9211242F933F934F935F93D8
:100480006F937F938F939F93AF93BF93EF93FF935C
:1004900088E291E00E945A01FF91EF91BF91AF91E4
:1004A0009F918F917F916F915F914F913F912F918C
:1004B0000F900FBE0F901F9018951F920F920FB6BE
:1004C0000F9211242F938F939F93EF93FF93E091BB
:1004D0003801F09139018081E0913E01F0913F01B6
:1004E00082FD12C09081809141018F5F8F732091B6
:1004F0004201821751F0E0914101F0E0E85DFE4FCA
:10050000958F8093410101C08081FF91EF919F9170
:100510008F912F910F900FBE0F901F9018951F92E3
:100520000F920FB60F9211242F933F938F939F93A7
:10053000AF93BF9380911B0190911C01A0911D016D
:10054000B0911E0130911A0123E0230F2D3720F4C2
:100550000196A11DB11D05C026E8230F0296A11D1D
:10056000B11D20931A0180931B0190931C01A0934D
:100570001D01B0931E0180911F0190912001A09157
:100580002101B09122010196A11DB11D80931F018F
:1005900090932001A0932101B0932201BF91AF91CC
:1005A0009F918F913F912F910F900FBE0F901F90B1
:1005B00018951F920F920FB60F9211242F933F930D
:1005C0004F935F936F937F938F939F93AF93BF935B
:1005D000EF93FF93E0910201F09103010995FF91E0
:1005E000EF91BF91AF919F918F917F916F915F91AB
:1005F0004F913F912F910F900FBE0F901F90189524
:100600001F920F920FB60F9211242F933F934F9387
:100610005F936F937F938F939F93AF93BF93EF936A
:10062000FF93E0910001F09101010995FF91EF9195
:10063000BF91AF919F918F917F916F915F914F91FA
:100640003F912F910F900FBE0F901F9018953FB7BD
:10065000F89480911F0190912001A0912101B09107
:10066000220126B5A89B05C02F3F19F00196A11DB8
:10067000B11D3FBFBA2FA92F982F8827820F911D38
:10068000A11DB11DBC01CD0142E0660F771F881F7F
:10069000991F4A95D1F70895E8E2F1E0138212829A
:1006A00088EE93E0A0E0B0E084839583A683B783CF
:1006B00089E091E09183808385EC90E09587848741
:1006C00084EC90E09787868780EC90E0918B808B1C
:1006D00081EC90E0938B828B82EC90E0958B848B05
:1006E00086EC90E0978B868B118E128E138E148E73
:1006F00088E08093C5010895789484B5826084BDB4
:1007000084B5816084BD85B5826085BD85B5816015
:1007100085BD80916E00816080936E001092810093
:10072000809181008260809381008091810081604E
:10073000809381008091800081608093800080910F
:10074000B10084608093B1008091B000816080939B
:10075000B00080917A00846080937A0080917A0062
:10076000826080937A0080917A00816080937A0021
:1007700080917A00806880937A001092C100E091A5
:100780003801F091390182E08083E0913401F091E9
:1007900035011082E0913601F091370180E18083CC
:1007A00010924001E0913C01F0913D0186E0808390
:1007B000E0913A01F0913B01808180618083E0917A
:1007C0003A01F0913B01808188608083E0913A0199
:1007D000F0913B01808180688083E0913A01F09143
:1007E0003B0180818F7D8083EBE6F0E08491E7EA36
:1007F000F0E09491E3E9F0E0E491EE23B1F1882395
:1008000039F1833091F038F48130A9F0823001F56C
:1008100084B58F7D12C0873091F08830A1F084308C
:10082000B9F4809180008F7D03C0809180008F7724
:10083000809380000DC084B58F7784BD09C08091FE
:10084000B0008F7703C08091B0008F7D8093B0009F
:10085000F0E0EE0FFF1FE458FF4FA591B4918FB762
:10086000F894EC91E92BEC938FBF83E00E94C600D3
:1008700088E00E94C60089E00E94C6008091C10005
:100880008F778093C10010926E0086EF91E0909375
:1008900003018093020180916900837F88608093C7
:1008A0006900E99A80910401882349F10E94270395
:1008B0004B015C0188EEC82E83E0D82EE12CF12C90
:1008C0000E942703DC01CB0188199909AA09BB09F9
:1008D000883E9340A105B10598F321E0C21AD108E2
:1008E000E108F10838EE830E33E0931EA11CB11C21
:1008F000C114D104E104F10419F7109204018091AC
:10090000C00087FF04C08091C600809327019091AA
:100910002701892F807F803709F148F4803651F50F
:1009200080912501282F207F892F8F701FC080384C
:1009300059F08039F9F480912601282F2F7030E189
:10094000939FC001112406C080912601282F207F8B
:10095000892F8F70822B80932601D1CF8091250122
:10096000282F2F7030E1939FC0011124822B809398
:100970002501C5CF90FF03C090932401C0CF909371
:100980002301BDCFEE0FFF1F0590F491E02D0994D8
:0E09900081E090E0F8940C94CD04F894FFCF31
:10099E00F501F50101000000007C01E5001301C91D
:0809AE000144012201360100A1
:00000001FF
