:100000000C945D000C9400030C94D9020C948500B0
:100010000C9485000C9485000C9485000C9485004C
:100020000C9485000C9485000C9485000C9485003C
:100030000C9485000C9485000C9485000C9485002C
:100040000C948F020C9485000C945D020C94370282
:100050000C9485000C9485000C9485000C9485000C
:100060000C9485000C94850000000008000201003B
:100070000003040700000000000000000000000072
:10008000250028002B0000000000240027002A0083
:10009000040404040404040402020202020203032E
:1000A0000303030301020408102040800102040836
:1000B00010200102040810204C0311241FBECFEFB2
:1000C000D8E0DEBFCDBF11E0A0E0B1E0EEE9F9E09D
:1000D00002C005900D92A831B107D9F721E0A8E13F
:1000E000B1E001C01D92A73CB207E1F710E0CDE5F9
:1000F000D0E004C02197FE010E94C204CC35D10794
:10010000C9F70E947C030C94CD040C9400008093EA
:10011000100058E04B9BFECF5B9844E04A9540307E
:10012000E9F707FD5B9A000047E04A954030E9F7A0
:1001300007FF5B9A000F42E04A954030E9F75A9575
:10014000503051F708958093100058E04B9BFECF3C
:100150005B9844E04A954030E9F707FD5B9A000060
:1001600047E04A954030E9F707FF5B9A000F42E00D
:100170004A954030E9F75A95503051F75B9846E080
:1001800000004A954030E1F75B9A089590E0FC0149
:10019000EC55FF4F2491FC01E057FF4F84918823D9
:1001A00099F090E0880F991FFC01EA57FF4FA59145
:1001B000B491FC01E458FF4F859194918FB7F89466
:1001C000EC91E22BEC938FBF0895CF92DF92EF92E8
:1001D000FF920F931F93CF93DF936C017A018B01F2
:1001E000C0E0D0E0CE15DF0581F0D8016D918D0122
:1001F000D601ED91FC910190F081E02DC6010995A9
:10020000892B11F02196EECF7E01C701DF91CF91AE
:100210001F910F91FF90EF90DF90CF900895089578
:1002200080E090E00895FC01538D448D252F30E04F
:10023000842F90E0821B930B541710F0CF960895F3
:1002400001970895FC01918D828D981761F0828D40
:10025000DF01A80FB11D5D968C91928D9F5F9F73FA
:10026000928F90E008958FEF9FEF0895FC01918D9C
:10027000828D981731F0828DE80FF11D858D90E009
:1002800008958FEF9FEF0895FC01918D228D892FA6
:1002900090E0805C9F4F821B91098F73992708958E
:1002A00088E291E00E94440121E0892B09F420E0DA
:1002B000822F0895FC01848DDF01A80FB11DA35A80
:1002C000BF4F2C91848D90E001968F739927848F76
:1002D000A689B7892C93A089B1898C918370806499
:1002E0008C93938D848D981306C00288F389E02D3A
:1002F00080818F7D80830895EF92FF920F931F93EB
:10030000CF93DF93EC0181E0888F9B8D8C8D9813C8
:1003100005C0E889F989808185FD26C0F62E0B8D00
:1003200010E00F5F1F4F0F731127E02E8C8DE81226
:100330000CC00FB607FCFACFE889F989808185FFE8
:10034000F5CFCE010E945A01F1CF8B8DFE01E80F4F
:10035000F11DE35AFF4FF0829FB7F8940B8FEA89A3
:10036000FB89808180620AC09FB7F894EE89FF897B
:100370006083E889F98980818370806480839FBF6E
:1003800081E090E0DF91CF911F910F91FF90EF906E
:100390000895CF93DF93EC01888D8823C9F0EA8913
:1003A000FB89808185FD05C0A889B9898C9186FD6E
:1003B0000FC00FB607FCF5CF808185FFF2CFA8896B
:1003C000B9898C9185FFEDCFCE010E945A01E7CF0C
:1003D000DF91CF91089580E090E0892B29F00E9471
:1003E000500181110C940000089508959AB18091F4
:1003F000C50189238AB957E04B99FECF46E000003A
:100400004A954030E1F7000C4B9B02C0039402C0B8
:100410004B9BFECF5A95503079F749E000004A9542
:100420004030E1F78091000080931901809119011B
:10043000811108C085E00E94870080E00E9487004B
:1004400082E00EC0809126010E94870080912501E4
:100450000E948700809123010E94870080912401DF
:100460000E94A30082E08CBB08950E94C8041F92E2
:100470000F920FB60F9211242F933F934F935F93D8
:100480006F937F938F939F93AF93BF93EF93FF935C
:1004900088E291E00E945A01FF91EF91BF91AF91E4
:1004A0009F918F917F916F915F914F913F912F918C
:1004B0000F900FBE0F901F9018951F920F920FB6BE
:1004C0000F9211242F938F939F93EF93FF93E091BB
:1004D0003801F09139018081E0913E01F0913F01B6
:1004E00082FD12C09081809141018F5F8F732091B6
:1004F0004201821751F0E0914101F0E0E85DFE4FCA
:10050000958F8093410101C08081FF91EF919F9170
:100510008F912F910F900FBE0F901F9018951F92E3
:100520000F920FB60F9211242F933F938F939F93A7
:10053000AF93BF9380911B0190911C01A0911D016D
:10054000B0911E0130911A0123E0230F2D3720F4C2
:100550000196A11DB11D05C026E8230F0296A11D1D
:10056000B11D20931A0180931B0190931C01A0934D
:100570001D01B0931E0180911F0190912001A09157
:100580002101B09122010196A11DB11D80931F018F
:1005900090932001A0932101B0932201BF91AF91CC
:1005A0009F918F913F912F910F900FBE0F901F90B1
:1005B00018951F920F920FB60F9211242F933F930D
:1005C0004F935F936F937F938F939F93AF93BF935B
:1005D000EF93FF93E0910201F09103010995FF91E0
:1005E000EF91BF91AF919F918F917F916F915F91AB
:1005F0004F913F912F910F900FBE0F901F90189524
:100600001F920F920FB60F9211242F933F934F9387
:100610005F936F937F938F939F93AF93BF93EF936A
:10062000FF93E0910001F09101010995FF91EF9195
:10063000BF91AF919F918F917F916F915F914F91FA
:100640003F912F910F900FBE0F901F9018953FB7BD
:10065000F89480911F0190912001A0912101B09107
:10066000220126B5A89B05C02F3F19F00196A11DB8
:10067000B11D3FBFBA2FA92F982F8827820F911D38
:10068000A11DB11DBC01CD0142E0660F771F881F7F
:10069000991F4A95D1F70895E8E2F1E0138212829A
:1006A00088EE93E0A0E0B0E084839583A683B783CF
:1006B00089E091E09183808385EC90E09587848741
:1006C00084EC90E09787868780EC90E0918B808B1C
:1006D00081EC90E0938B828B82EC90E0958B848B05
:1006E00086EC90E0978B868B118E128E138E148E73
:1006F00088E08093C5010895789484B5826084BDB4
:1007000084B5816084BD85B5826085BD85B5816015
:1007100085BD80916E00816080936E001092810093
:10072000809181008260809381008091810081604E
:10073000809381008091800081608093800080910F
:10074000B10084608093B1008091B000816080939B
:10075000B00080917A00846080937A0080917A0062
:10076000826080937A0080917A00816080937A0021
:1007700080917A00806880937A001092C100E091A5
:100780003801F091390182E08083E0913401F091E9
:1007900035011082E0913601F091370180E18083CC
:1007A00010924001E0913C01F0913D0186E0808390
:1007B000E0913A01F0913B01808180618083E0917A
:1007C0003A01F0913B01808188608083E0913A0199
:1007D000F0913B01808180688083E0913A01F09143
:1007E0003B0180818F7D8083EBE6F0E08491E7EA36
:1007F000F0E09491E3E9F0E0E491EE23B1F1882395
:1008000039F1833091F038F48130A9F0823001F56C
:1008100084B58F7D12C0873091F08830A1F084308C
:10082000B9F4809180008F7D03C0809180008F7724
:10083000809380000DC084B58F7784BD09C08091FE
:10084000B0008F7703C08091B0008F7D8093B0009F
:10085000F0E0EE0FFF1FE458FF4FA591B4918FB762
:10086000F894EC91E92BEC938FBF83E00E94C600D3
:1008700088E00E94C60089E00E94C6008091C10005
:100880008F778093C10010926E0086EF91E0909375
:1008900003018093020180916900837F88608093C7
:1008A0006900E99A80910401882349F10E94270395
:1008B0004B015C0188EEC82E83E0D82EE12CF12C90
:1008C0000E942703DC01CB0188199909AA09BB09F9
:1008D000883E9340A105B10598F321E0C21AD108E2
:1008E000E108F10838EE830E33E0931EA11CB11C21
:1008F000C114D104E104F10419F7109204018091AC
:10090000C00087FF04C08091C600809327019091AA
:100910002701892F807F803709F148F4803651F50F
:1009200080912501282F207F892F8F701FC080384C
:1009300059F08039F9F480912601282F2F7030E189
:10094000939FC001112406C080912601282F207F8B
:10095000892F8F70822B80932601D1CF8091250122
:10096000282F2F7030E1939FC0011124822B809398
:100970002501C5CF90FF03C090932401C0CF909371
:100980002301BDCFEE0FFF1F0590F491E02D0994D8
:0E09900081E090E0F8940C94CD04F894FFCF31
:10099E00F501F50101000000007C01E5001301C91D
:0809AE000144012201360100A1
:107800000C94343C0C94513C0C94513C0C94513CE1
:107810000C94513C0C94513C0C94513C0C94513CB4
:107820000C94513C0C94513C0C94513C0C94513CA4
:107830000C94513C0C94513C0C94513C0C94513C94
:107840000C94513C0C94513C0C94513C0C94513C84
:107850000C94513C0C94513C0C94513C0C94513C74
:107860000C94513C0C94513C11241FBECFEFD8E036
:10787000DEBFCDBF11E0A0E0B1E0ECE9FFE702C060
:1078800005900D92A230B107D9F712E0A2E0B1E065
:1078900001C01D92AD30B107E1F70E942D3D0C945F
:1078A000CC3F0C94003C982F959595959595959582
:1078B000905D8F708A307CF0282F295A8091C0000B
:1078C00085FFFCCF9093C6008091C00085FFFCCF60
:1078D0002093C6000895282F205DF0CF982F809127
:1078E000C00085FFFCCF9093C6000895EF92FF92F1
:1078F0000F931F93EE24FF2487018091C00087FD22
:1079000017C00894E11CF11C011D111D81E4E8164B
:1079100082E4F8068FE0080780E0180770F3E09132
:107920000401F091050109958091C00087FFE9CF1E
:107930008091C6001F910F91FF90EF9008950E94D3
:10794000763C982F8091C00085FFFCCF9093C600B5
:1079500091362CF490330CF09053892F089597555D
:10796000892F08951F930E949F3C182F0E949F3CCF
:107970001295107F810F1F9108951F93182F882350
:1079800021F00E94763C1150E1F71F9108951F935A
:10799000182F0E94763C803249F0809103018F5F5E
:1079A000809303018530C1F01F9108958091C0003C
:1079B00085FFFCCF84E18093C6008091C00085FFE5
:1079C000FCCF1093C6008091C00085FFFCCF80E102
:1079D0008093C6001F910895E0910401F091050184
:1079E00009951F9108950E94763C803241F0809164
:1079F00003018F5F80930301853081F008958091AA
:107A0000C00085FFFCCF84E18093C6008091C00058
:107A100085FFFCCF80E18093C6000895E0910401CA
:107A2000F09105010995089540E951E08823A1F0FE
:107A30002D9A28EE33E0FA013197F1F721503040CA
:107A4000D1F72D9828EE33E0FA013197F1F7215064
:107A50003040D1F7815061F708953F924F925F9285
:107A60006F927F928F929F92AF92BF92CF92DF924E
:107A7000EF92FF920F931F93CF93DF93000080E16B
:107A80008093C4001092C50088E18093C10086E015
:107A90008093C2005098589A259A81E00E94143D24
:107AA00024E1F22E9EE1E92E85E9D82E0FE0C02ECA
:107AB00010E1B12EAA24A394B1E49B2EA6E58A2E50
:107AC000F2E57F2EE0E26E2E79E4572E63E5462E36
:107AD00050E5352E0E94763C8033B1F18133B9F107
:107AE000803409F46FC0813409F476C0823409F41B
:107AF00085C0853409F488C0803531F1823521F1A3
:107B0000813511F1853509F485C0863509F48DC0BC
:107B1000843609F496C0843709F403C1853709F423
:107B200072C1863709F466C0809103018F5F80932C
:107B30000301853079F6E0910401F0910501099582
:107B40000E94763C803351F60E94F33CC3CF0E94E2
:107B5000763C803249F78091C00085FFFCCFF092DF
:107B6000C6008091C00085FFFCCF9092C600809136
:107B7000C00085FFFCCF8092C6008091C00085FFC9
:107B8000FCCF7092C6008091C00085FFFCCF609250
:107B9000C6008091C00085FFFCCF5092C600809146
:107BA000C00085FFFCCF4092C6008091C00085FFD9
:107BB000FCCF3092C6008091C00085FFFCCFB09210
:107BC000C60088CF0E94763C863808F4BDCF0E945C
:107BD000763C0E94F33C7ECF0E94763C803809F4CC
:107BE0009CC0813809F40BC1823809F43CC1883942
:107BF00009F48FC080E00E94C73C6CCF84E10E94F2
:107C0000BD3C0E94F33C66CF85E00E94BD3C0E94D3
:107C1000F33C60CF0E94763C809306010E94763C44
:107C2000809307010E94F33C55CF0E94763C80333D
:107C300009F41DC183E00E94BD3C80E00E94C73C66
:107C400049CF0E94763C809309020E94763C809343
:107C5000080280910C028E7F80930C020E94763C79
:107C6000853409F415C18091080290910902892B8D
:107C700089F000E010E00E94763CF801E85FFE4FDA
:107C800080830F5F1F4F80910802909109020817AF
:107C9000190788F30E94763C803209F045CF809125
:107CA0000C0280FF01C16091060170910701660F0F
:107CB000771F7093070160930601A0910802B091AD
:107CC00009021097C9F0E8E0F1E09B01AD014E0F09
:107CD0005F1FF999FECF32BD21BD819180BDFA9A17
:107CE000F99A2F5F3F4FE417F50799F76A0F7B1F4B
:107CF00070930701609306018091C00085FFFCCF5F
:107D0000F092C6008091C00085FFFCCFB092C60003
:107D1000E1CE83E00E94C73CDDCE82E00E94C73CFA
:107D2000D9CE0E94763C809309020E94763C8093D3
:107D300008028091060190910701880F991F909386
:107D40000701809306010E94763C853409F4A6C0A1
:107D500080910C028E7F80930C020E94763C8032D0
:107D600009F0B8CE8091C00085FFFCCFF092C6002C
:107D7000609108027091090261157105B9F140E046
:107D800050E080910C02A82FA170B82FB27011C0E2
:107D9000BB2309F45CC0E0910601F0910701319624
:107DA000F0930701E09306014F5F5F4F46175707B7
:107DB000E8F4AA2369F3F999FECF209106013091E6
:107DC000070132BD21BDF89A90B58091C00085FFB2
:107DD000FCCF9093C6002F5F3F4F30930701209355
:107DE00006014F5F5F4F4617570718F38091C00099
:107DF00085FDE5CE8091C00085FFF8CFE0CE81E023
:107E00000E94C73C67CE0E94763C803209F08CCE3F
:107E10008091C00085FFFCCFF092C6008091C00029
:107E200085FFFCCFE092C6008091C00085FFFCCFAB
:107E3000D092C6008091C00085FFFCCFC092C600E2
:107E40008091C00085FFFCCFB092C60043CEE09188
:107E50000601F091070194918091C00085FFFCCF4D
:107E60009093C6009CCF80E10E94C73C33CE0E9415
:107E7000763C0E94763C182F0E94763C112309F430
:107E800083C0113009F484C08FE00E94C73C22CE29
:107E900080910C02816080930C02E5CE80910C02EF
:107EA000816080930C0259CF809107018823880F4D
:107EB000880B8A2180930B02809106019091070123
:107EC000880F991F90930701809306018091080203
:107ED00080FF09C080910802909109020196909359
:107EE000090280930802F894F999FECF1127E091D6
:107EF0000601F0910701C8E0D1E08091080290915D
:107F00000902103091F40091570001700130D9F34B
:107F100003E000935700E89500915700017001308D
:107F2000D9F301E100935700E89509901990009169
:107F3000570001700130D9F301E000935700E89534
:107F40001395103498F011270091570001700130FB
:107F5000D9F305E000935700E895009157000170B0
:107F60000130D9F301E100935700E895329602976A
:107F700009F0C7CF103011F00296E5CF112480919F
:107F8000C00085FFB9CEBCCE8EE10E94C73CA2CD19
:0C7F900085E90E94C73C9ECDF894FFCF0D
:027F9C00800063
:040000030000780081
:00000001FF