:100000000C9463000C948B000C948B000C94910363
:100010000C9491030C9491030C948B000C948B0022
:100020000C948B000C948B000C948B000C948B0024
:100030000C948B000C948B000C948B000C948B0014
:100040000C9447030C948B000C9415030C94EF0252
:100050000C948B000C948B000C948B000C948B00F4
:100060000C948B000C948B000000000024002700EF
:100070002A0000000008000201000003040700003D
:1000800000000000000000000000230026002900FE
:1000900000000000250028002B00040404040404D0
:1000A0000404020202020202030303030303010227
:1000B00004081020408001020408102001020408F6
:1000C00010200B04070611241FBECFEFD8E0DEBFBF
:1000D000CDBF11E0A0E0B1E0E6ECFCE002C005908D
:1000E0000D92A432B107D9F722E0A4E2B1E001C039
:1000F0001D92A033B207E1F710E0C2E6D0E004C0E1
:100100002197FE010E944B06C136D107C9F70E9414
:10011000B9040C9456060C940000CF92DF92EF9233
:10012000FF920F931F93CF93DF936C017A018B01A2
:10013000C0E0D0E0CE15DF0581F0D8016D918D01D2
:10014000D601ED91FC910190F081E02DC601099559
:10015000892B11F02196EECF7E01C701DF91CF915F
:100160001F910F91FF90EF90DF90CF900895FC01C9
:10017000538D448D252F30E0842F90E0821B930B0C
:10018000541710F0CF96089501970895FC01918DB2
:10019000828D981761F0828DDF01A80FB11D5D96E9
:1001A0008C91928D9F5F9F73928F90E008958FEF57
:1001B0009FEF0895FC01918D828D981731F0828D0B
:1001C000E80FF11D858D90E008958FEF9FEF089562
:1001D000FC01918D228D892F90E0805C9F4F821BC6
:1001E00091098F739927089582E791E00E94E800B2
:1001F00021E0892B09F420E0822F0895FC01848DF1
:10020000DF01A80FB11DA35ABF4F2C91848D90E040
:1002100001968F739927848FA689B7892C93A0891B
:10022000B1898C91837080648C93938D848D9813A5
:1002300006C00288F389E02D80818F7D8083089538
:10024000EF92FF920F931F93CF93DF93EC0181E026
:10025000888F9B8D8C8D981305C0E889F9898081E2
:1002600085FD26C0F62E0B8D10E00F5F1F4F0F731C
:100270001127E02E8C8DE8120CC00FB607FCFACFC8
:10028000E889F989808185FFF5CFCE010E94FE00C3
:10029000F1CF8B8DFE01E80FF11DE35AFF4FF08285
:1002A0009FB7F8940B8FEA89FB89808180620AC02E
:1002B0009FB7F894EE89FF896083E889F989808186
:1002C0008370806480839FBF81E090E0DF91CF9155
:1002D0001F910F91FF90EF900895CF93DF93EC0162
:1002E000888D8823C9F0EA89FB89808185FD05C056
:1002F000A889B9898C9186FD0FC00FB607FCF5CF90
:10030000808185FFF2CFA889B9898C9185FFEDCFD7
:10031000CE010E94FE00E7CFDF91CF91089580E0EB
:1003200090E0892B29F00E94F40081110C940000C8
:10033000089590E0FC01EE58FF4F2491FC01E25536
:10034000FF4F3491FC01E656FF4FE491EE2309F490
:100350003CC0222339F1233091F038F42130A9F048
:10036000223001F584B58F7D12C0273091F02830FE
:10037000A1F02430B9F4809180008F7D03C080917A
:1003800080008F77809380000DC084B58F7784BD07
:1003900009C08091B0008F7703C08091B0008F7D3D
:1003A0008093B000F0E0EE0FFF1FE057FF4FA591E4
:1003B000B4919FB7F894611104C08C9130953823A3
:1003C00002C0EC913E2B3C939FBF0895CF93DF93E7
:1003D00090E0FC01E255FF4F2491FC01E656FF4FEF
:1003E0008491882361F190E0880F991FFC01E859FE
:1003F000FF4FC591D491FC01E057FF4FA591B491F7
:10040000611109C09FB7F894888120958223888361
:10041000EC912E230BC0623061F49FB7F894888171
:10042000322F309583238883EC912E2B2C939FBF02
:1004300006C08FB7F894E8812E2B28838FBFDF91F9
:10044000CF9108953FB7F8948091690190916A0126
:10045000A0916B01B0916C0126B5A89B05C02F3F00
:1004600019F00196A11DB11D3FBFBA2FA92F982FDA
:100470008827820F911DA11DB11DBC01CD0142E055
:10048000660F771F881F991F4A95D1F7089520910D
:100490006F01309170012817390771F490916D0147
:1004A00080916E01981741F0E0916D01F0E0EC5DF4
:1004B000FE4F808190E008958FEF9FEF089508959B
:1004C0001F93CF93DF93DC015C968D919C915D9798
:1004D000009739F421E030E013963C932E93129765
:1004E0003BC05196ED91FC91529750962C915097AC
:1004F000322F30951FB75E964C915E97742F7270B5
:1005000041FD6095F8944081772311F0422B01C0A2
:1005100043234083EC012197F1F748E0508160FFCD
:1005200002C0522B01C053235083EC012197F1F7F5
:100530006695415099F78081772319F08323808352
:1005400002C0282B20831FBF5C968D919C915D97E4
:100550000197F1F781E090E0DF91CF911F9108952D
:1005600020916F01309170012817390771F4809143
:100570006E0120916D0190E0805C9F4F821B91097C
:1005800060E470E00E942306089580E090E0089502
:1005900020916F013091700128173907B9F49091BB
:1005A0006D0180916E01981789F0E0916D01F0E086
:1005B000EC5DFE4F808120916D0130E02F5F3F4F59
:1005C0002F73332720936D0190E008958FEF9FEFF5
:1005D0000895089580E090E008950E9451061F92CA
:1005E0000F920FB60F9211242F933F934F935F9367
:1005F0006F937F938F939F93AF93BF93EF93FF93EB
:1006000082E791E00E94FE00FF91EF91BF91AF91D0
:100610009F918F917F916F915F914F913F912F911A
:100620000F900FBE0F901F9018951F920F920FB64C
:100630000F9211242F938F939F93EF93FF93E09149
:100640008201F09183018081E0918801F09189011C
:1006500082FD12C0908180918B018F5F8F732091FA
:100660008C01821751F0E0918B01F0E0EE58FE4FC3
:10067000958F80938B0101C08081FF91EF919F91B5
:100680008F912F910F900FBE0F901F9018951F9272
:100690000F920FB60F9211242F933F938F939F9336
:1006A000AF93BF938091650190916601A09167011E
:1006B000B09168013091640123E0230F2D3720F4BD
:1006C0000196A11DB11D05C026E8230F0296A11DAC
:1006D000B11D209364018093650190936601A093FE
:1006E0006701B09368018091690190916A01A091BE
:1006F0006B01B0916C010196A11DB11D8093690140
:1007000090936A01A0936B01B0936C01BF91AF917C
:100710009F918F913F912F910F900FBE0F901F903F
:1007200018951F920F920FB60F9211242F933F939B
:100730004F935F936F937F938F939F93AF93BF93E9
:10074000EF93FF93E0916F01F0917001309709F4FE
:1007500051C0968DA685B785858591FF04C09C9173
:10076000892329F447C09C91892309F043C0A389B8
:10077000B4899C918589809589238C9386899789F2
:100780000197F1F7608D718DA685B785558538E0A5
:1007900020E0CB010197F1F7822F90E095958795A6
:1007A000282F4C91452309F02068315091F7868D10
:1007B00081FD209580916E0190E001968F739927BD
:1007C00030916D01381749F0A0916E01B0E0AC5D39
:1007D000BE4F2C9380936E0103C0868D8160868FFF
:1007E000828D938D0197F1F7A389B4899C918589B6
:1007F000892B8C93FF91EF91BF91AF919F918F9136
:100800007F916F915F914F913F912F910F900FBE0C
:100810000F901F901895109275011092740188EE38
:1008200093E0A0E0B0E08093760190937701A093ED
:100830007801B093790124E031E030937301209383
:10084000720125EC30E030937F0120937E0124EC8F
:1008500030E0309381012093800120EC30E0309330
:1008600083012093820121EC30E0309385012093B5
:10087000840122EC30E0309387012093860126EC3E
:1008800030E0309389012093880110928B011092FF
:100890008C0110928D0110928E0120E820932E027F
:1008A000109212021092110280931302909314027C
:1008B000A0931502B093160286E191E09093100286
:1008C00080930F02109226021092250210922802A5
:1008D0001092270210922A021092290210922C02E2
:1008E00010922B0260912D026E7F6D7F60932D021E
:1008F0006695617081E0682783E00E94990161E05C
:1009000083E00E94E601E1EBF0E0E491E0931F0256
:10091000EDE9F0E0E491F0E0EE0FFF1FE057FF4F4C
:1009200085919491909321028093200260E082E06F
:100930000E94E60180912D0281FD04C061E082E009
:100940000E94990182E080931B02E0EBF0E0E491C9
:10095000E0931C02ECE9F0E0E491F0E0EE0FFF1F01
:10096000EA57FF4F8591949190931E0280931D0248
:100970000895789484B5826084BD84B5816084BD17
:1009800085B5826085BD85B5816085BD80916E002D
:10099000816080936E00109281008091810082605E
:1009A000809381008091810081608093810080919B
:1009B00080008160809380008091B100846080938A
:1009C000B1008091B00081608093B00080917A0086
:1009D000846080937A0080917A00826080937A00AC
:1009E00080917A00816080937A0080917A0080689B
:1009F00080937A001092C100E0918201F09183010E
:100A000082E08083E0917E01F0917F011082E0918D
:100A10008001F09181018FEC808310928A01E09136
:100A20008601F091870186E08083E0918401F09156
:100A30008501808180618083E0918401F09185014E
:100A4000808188608083E0918401F09185018081BC
:100A500080688083E0918401F091850180818F7DA1
:100A6000808310922A02109229021092280210927A
:100A70002702109226021092250285E690E09093BC
:100A80002C0280932B0290911B02963108F058C0E3
:100A900021E230E0309326022093250223E630E065
:100AA000309328022093270222E430E030932A0278
:100AB0002093290240916800983058F031E09E3030
:100AC00008F430E021E0822F01C0880F3A95EAF760
:100AD00001C084E0842B80936800983038F09E3009
:100AE00040F0963148F020E030E008C02DE630E0DC
:100AF00005C02BE630E002C02CE630E03093230244
:100B000020932202983030F481E001C0880F9A953A
:100B1000EAF70EC0292F30E09E3018F42850310932
:100B200002C02E50310981E001C0880F2A95EAF7F2
:100B30008093240280912B0290912C020197F1F76F
:100B40008091290290912A02892B49F1E0916F014D
:100B5000F091700122E0EF30F20709F1309739F09F
:100B6000A389B4899C918589809589238C938091F0
:100B70002D028E7F80932D0210926E0110926D01D6
:100B80008FE092E09093700180936F01E0912202D8
:100B9000F0912302908180912402892B808361E06F
:100BA00087E00E94990161E087E00E94E601809160
:100BB0007101882349F10E9422024B015C0180ED02
:100BC000C82E87E0D82EE12CF12C0E942202DC01F5
:100BD000CB0188199909AA09BB09883E9340A10550
:100BE000B10598F381E0C81AD108E108F10828EEB0
:100BF000820E23E0921EA11CB11CC114D104E10499
:100C0000F10419F7109271010E948F01D0CF86E193
:100C100091E09093100280930F0280916F01909168
:100C200070018F50924071F4E0912202F091230202
:100C30009081809124028095892380831092700195
:100C400010926F01089597FB072E16F4009407D0B9
:100C500077FD09D00E94370607FC05D03EF4909539
:100C600081959F4F0895709561957F4F0895AA1BB8
:100C7000BB1B51E107C0AA1FBB1FA617B70710F087
:100C8000A61BB70B881F991F5A95A9F780959095B9
:100C9000BC01CD010895EE0FFF1F0590F491E02DEA
:100CA000099481E090E0F8940C94560610E0C2E6B6
:100CB000D0E004C0FE010E944B062196C336D10746
:060CC000C9F7F894FFCF14
:100CC6000000000020018D00B7006D01E800C6009D
:100CD600DA000000000060028D00EA025F02B00246
:040CE600C8024702F7
:00000001FF
