:100000000C9462000C948A000C948A000C948A0070
:100010000C948A000C948A000C948A000C948A0038
:100020000C948A000C948A000C948A000C948A0028
:100030000C948A000C948A000C948A000C948A0018
:100040000C9433030C948A000C9401030C94DB028F
:100050000C948A000C948A000C948A000C948A00F8
:100060000C948A000C948A000000000023002600F3
:10007000290000000000240027002A0000000000E2
:10008000250028002B0004040404040404040202D4
:100090000202020203030303030301020408102007
:1000A0004080010204081020010204081020000012
:1000B0000008000201000003040700000000000027
:1000C00000007D0311241FBECFEFD8E0DEBFCDBFFF
:1000D00026E0ACE4B1E001C01D92AA33B207E1F71B
:1000E00011E0A0E0B1E0ECEEFCE002C005900D9262
:1000F000AC34B107D9F710E0C2E6D0E004C02197D4
:10010000FE010E946906C136D107C9F70E94BC03EF
:100110000C9474060C940000E5E5F5E0A089B18923
:1001200082E08C93A485B5851C92A685B7858FEC5B
:100130008C93108EA489B58986E08C93A289B389AB
:100140008C9180618C93A289B3898C9188608C9307
:10015000A289B3898C9180688C930288F389E02D01
:1001600080818F7D80830895E2EBF0E09491EEE949
:10017000F0E02491EAE8F0E0E491EE2309F43CC0D9
:10018000992339F1933091F038F49130A9F09230FD
:1001900001F594B59F7D12C0973091F09830A1F091
:1001A0009430B9F4909180009F7D03C090918000BD
:1001B0009F77909380000DC094B59F7794BD09C040
:1001C0009091B0009F7703C09091B0009F7D909375
:1001D000B000F0E0EE0FFF1FE458FF4FA591B4917F
:1001E0009FB7F894811104C08C912095282302C0F8
:1001F000EC912E2B2C939FBF0895CF93DF93EEE9C4
:10020000F0E09491EAE8F0E02491222361F130E0FB
:10021000220F331FF901EE58FF4FA591B491F90158
:10022000E458FF4FC591D491811109C02FB7F894BC
:100230008C91909589238C93E8819E230BC082300A
:1002400061F42FB7F8948C91392F309583238C93D8
:10025000E8819E2B98832FBF06C08FB7F894EC914E
:100260009E2B9C938FBFDF91CF910895CF92DF9209
:10027000EF92FF920F931F93CF93DF936C017A015C
:100280008B01C0E0D0E0CE15DF0581F0D8016D9183
:100290008D01D601ED91FC910190F081E02DC60118
:1002A0000995892B11F02196EECF7E01C701DF91D0
:1002B000CF911F910F91FF90EF90DF90CF90089515
:1002C000089580E090E00895FC01538D448D252F22
:1002D00030E0842F90E0821B930B541710F0CF96E0
:1002E000089501970895FC01918D828D981761F012
:1002F000828DDF01A80FB11D5D968C91928D9F5F5D
:100300009F73928F90E008958FEF9FEF0895FC0107
:10031000918D828D981731F0828DE80FF11D858DBA
:1003200090E008958FEF9FEF0895FC01918D228D4D
:10033000892F90E0805C9F4F821B91098F739927D2
:10034000089585E595E00E94950121E0892B09F447
:1003500020E0822F0895FC01848DDF01A80FB11DDC
:10036000A35ABF4F2C91848D90E001968F739927EB
:10037000848FA689B7892C93A089B1898C918370C9
:1003800080648C93938D848D981306C00288F389C2
:10039000E02D80818F7D80830895EF92FF920F93EF
:1003A0001F93CF93DF93EC0181E0888F9B8D8C8D21
:1003B000981305C0E889F989808185FD26C0F62E4D
:1003C0000B8D10E00F5F1F4F0F731127E02E8C8DE8
:1003D000E8120CC00FB607FCFACFE889F9898081D2
:1003E00085FFF5CFCE010E94AB01F1CF8B8DFE01D1
:1003F000E80FF11DE35AFF4FF0829FB7F8940B8F7F
:10040000EA89FB89808180620AC09FB7F894EE89EF
:10041000FF896083E889F9898081837080648083A3
:100420009FBF81E090E0DF91CF911F910F91FF90EE
:10043000EF900895CF93DF93EC01888D8823C9F066
:10044000EA89FB89808185FD05C0A889B9898C91DD
:1004500086FD0FC00FB607FCF5CF808185FFF2CF78
:10046000A889B9898C9185FFEDCFCE010E94AB019F
:10047000E7CFDF91CF91089580E090E0892B29F0BC
:100480000E94A10181110C94000008952FB7F894E7
:1004900060915101709152018091530190915401EA
:1004A0002FBF08958F929F92AF92BF92CF92DF920B
:1004B000EF92FF926B017C010E9446024B015C01AE
:1004C000C60ED71EE81EF91E0E9446026815790561
:1004D0008A059B0528F0C616D706E806F906A0F798
:1004E000FF90EF90DF90CF90BF90AF909F908F9054
:1004F00008950E946F066115710579F0FB01019066
:100500000020E9F73197AF01461B570BDC01ED9155
:10051000FC910280F381E02D099480E090E0089541
:100520008F929F92AF92BF92EF92FF920F931F9381
:10053000CF93DF93CDB7DEB7A1970FB6F894DEBFA8
:100540000FBECDBF7C01FA01CB0119A2223008F405
:100550002AE08E010F5D1F4F822E912CA12CB12C11
:10056000BF01A50194010E944706F901CA0101508B
:1005700011096A3014F4605D01C0695CD8016C93A4
:10058000232B242B252B61F7B801C7010E947B0286
:10059000A1960FB6F894DEBF0FBECDBFDF91CF910D
:1005A0001F910F91FF90EF90BF90AF909F908F9011
:1005B00008950C947B021F920F920FB60F92112494
:1005C0002F933F934F935F936F937F938F939F935B
:1005D000AF93BF93EF93FF9385E595E00E94AB0146
:1005E000FF91EF91BF91AF919F918F917F916F910B
:1005F0005F914F913F912F910F900FBE0F901F90E1
:1006000018951F920F920FB60F9211242F938F936C
:100610009F93EF93FF93E0916505F09166058081CC
:10062000E0916B05F0916C0582FD12C09081809184
:100630006E058F5F8F7320916F05821751F0E091E7
:100640006E05F0E0EB5AFA4F958F80936E0501C06E
:100650008081FF91EF919F918F912F910F900FBE0D
:100660000F901F9018951F920F920FB60F921124A2
:100670002F933F938F939F93AF93BF93809151019B
:1006800090915201A0915301B091540130915001C9
:1006900023E0230F2D3720F40196A11DB11D05C0C5
:1006A00026E8230F0296A11DB11D209350018093CF
:1006B000510190935201A0935301B0935401809142
:1006C0004C0190914D01A0914E01B0914F010196C6
:1006D000A11DB11D80934C0190934D01A0934E013B
:1006E000B0934F01BF91AF919F918F913F912F9107
:1006F0000F900FBE0F901F901895E5E5F5E013825F
:10070000128288EE93E0A0E0B0E084839583A68314
:10071000B78384E091E09183808385EC90E09587B6
:10072000848784EC90E09787868780EC90E0918BBB
:10073000808B81EC90E0938B828B82EC90E0958BA8
:10074000848B86EC90E0978B868B118E128E138EA5
:10075000148EE2EFF5E0168217821086118612865B
:1007600013861486158616861786108A118A128AB1
:10077000138A148A158A0895789484B5826084BD9A
:1007800084B5816084BD85B5826085BD85B5816095
:1007900085BD80916E00816080936E001092810013
:1007A00080918100826080938100809181008160CE
:1007B000809381008091800081608093800080918F
:1007C000B10084608093B1008091B000816080931B
:1007D000B00080917A00846080937A0080917A00E2
:1007E000826080937A0080917A00816080937A00A1
:1007F00080917A00806880937A001092C1001092F4
:10080000360610923706109238061092390610926A
:10081000F4051092F5051092F6051092F70568EBB5
:100820007BE080E090E00E94520285E595E09093A5
:100830003506809334060E948C000E944602609325
:10084000F4057093F5058093F6059093F70562E142
:1008500071E080913406909135060E94D9026AE0D9
:1008600070E080E090E00E94520281E080930806F0
:100870000E948C0081E00E94FD0081E00E94B40093
:1008800005EA11E094EFC92EDD24D394E12CF12C7C
:1008900021E2822E912CA12CB12CF89481E00E94AF
:1008A000FD0081E00E94B400C8E0D0E080E00E943A
:1008B000B40087E090E00197F1F781E00E94B40076
:1008C0002197A1F780E00E94B40081E00E94B4006B
:1008D00083E090E00197F1F780E00E94FD0081E065
:1008E0000E94B4007894C5E5D1E0DE01EEE9F0E0C5
:1008F0002491EAE8F0E08491E82FF0E0EE0FFF1F8A
:10090000E859FF4F85919491FC018081282381E073
:1009100009F480E08D930A171B0741F7499188E09D
:1009200090E0272D01C0220F7A94EAF7742E722AE4
:100930000197B9F7711003C064E271E005C0FFE0F0
:10094000F71530F065E271E085E595E00E94D90287
:10095000472D50E060E070E020E185E595E00E94E1
:10096000900267E271E085E595E00E94D90221E0FE
:10097000CF35D20799F668E471E085E595E00E94ED
:100980007B02C0920006D0920106E0920206F0922D
:1009900003061092040610920506109206061092A5
:1009A00007068091F8059091F905A091FA05B0919C
:1009B000FB058093FC059093FD05A093FE05B09385
:1009C000FF050E9446026093F8057093F905809335
:1009D000FA059093FB0562E070E080E090E00E94F1
:1009E00052026AE070E080E090E00E94520285E6E8
:1009F0008093090680910906833609F43BC1853648
:100A000009F0C9C08091040690910506A0910606E0
:100A1000B09107060196A11DB11D80930406909325
:100A20000506A0930606B093070640910006509174
:100A300001066091020670910306452B462B472B59
:100A400029F4892B8A2B8B2B09F0A5C00E94460222
:100A50002091F4053091F5054091F6055091F70588
:100A6000DC01CB01821B930BA40BB50B81329105EA
:100A7000A105B10550F4A5019401281B390B4A0BBF
:100A80005B0BCA01B9010E9452020E9446026093A8
:100A9000F4057093F5058093F6059093F7050E9491
:100AA00046021B012C0169E271E0809134069091AD
:100AB00035060E94D9022AE041E050E060E070E093
:100AC00080913406909135060E94900260E371E0B7
:100AD00080913406909135060E94D9022AE0B20135
:100AE000A10180913406909135060E94900262E344
:100AF00071E080913406909135060E94D902809170
:100B0000F8059091F905A091FA05B091FB05B201A5
:100B1000A101481B590B6A0B7B0B2AE0809134061C
:100B2000909135060E94900262E371E08091340654
:100B3000909135060E94D9024091F8055091F9052F
:100B40006091FA057091FB058091FC059091FD057F
:100B5000A091FE05B091FF05481B590B6A0B7B0B5A
:100B60002AE080913406909135060E949002C0914F
:100B70003406D091350664E371E0CE010E947B0219
:100B800068E471E0CE010E947B0264EF71E080E0D6
:100B900090E00E9452026AE070E080E090E00E94E3
:100BA000520280910806882309F462C080913406BD
:100BB00090913506DC01ED91FC910084F185E02DEA
:100BC0000995882309F413CF809134069091350656
:100BD000DC01ED91FC910084F185E02D09958823DD
:100BE00009F405CF8091340690913506DC01ED9132
:100BF000FC910284F385E02D09958836C9F180F5D2
:100C00008835A1F1833601F70E9446026093F4050E
:100C10007093F5058093F6059093F7056BE371E00B
:100C200080913406909135060E94D9022AE041E075
:100C300050E060E070E080913406909135060E94AB
:100C4000900262E471E080913406909135060E9432
:100C5000D90262E370E080E090E00E94520208C096
:100C6000813731F0863709F4C3CEAECF1092080633
:100C700083E6BECE0E9446026093F8057093F905A4
:100C80008093FA059093FB050E943C0206CEA1E2F8
:100C90001A2EAA1BBB1BFD010DC0AA1FBB1FEE1FF6
:100CA000FF1FA217B307E407F50720F0A21BB30B41
:100CB000E40BF50B661F771F881F991F1A9469F7BD
:100CC00060957095809590959B01AC01BD01CF0119
:100CD0000895EE0FFF1F0590F491E02D099481E037
:0C0CE00090E0F8940C947406F894FFCF98
:100CEC0000000000CD01360164011A029501730168
:100CFC008701564D4450565F317C315F564D445000
:100D0C00560D0A003030002000564D4450455F000F
:100D1C003A323A005F564D44504500564D445043CC
:0C0D2C005F005F564D4450430D0A00006C
:107800000C94343C0C94513C0C94513C0C94513CE1
:107810000C94513C0C94513C0C94513C0C94513CB4
:107820000C94513C0C94513C0C94513C0C94513CA4
:107830000C94513C0C94513C0C94513C0C94513C94
:107840000C94513C0C94513C0C94513C0C94513C84
:107850000C94513C0C94513C0C94513C0C94513C74
:107860000C94513C0C94513C11241FBECFEFD8E036
:10787000DEBFCDBF11E0A0E0B1E0ECE9FFE702C060
:1078800005900D92A230B107D9F712E0A2E0B1E065
:1078900001C01D92AD30B107E1F70E942D3D0C945F
:1078A000CC3F0C94003C982F959595959595959582
:1078B000905D8F708A307CF0282F295A8091C0000B
:1078C00085FFFCCF9093C6008091C00085FFFCCF60
:1078D0002093C6000895282F205DF0CF982F809127
:1078E000C00085FFFCCF9093C6000895EF92FF92F1
:1078F0000F931F93EE24FF2487018091C00087FD22
:1079000017C00894E11CF11C011D111D81E4E8164B
:1079100082E4F8068FE0080780E0180770F3E09132
:107920000401F091050109958091C00087FFE9CF1E
:107930008091C6001F910F91FF90EF9008950E94D3
:10794000763C982F8091C00085FFFCCF9093C600B5
:1079500091362CF490330CF09053892F089597555D
:10796000892F08951F930E949F3C182F0E949F3CCF
:107970001295107F810F1F9108951F93182F882350
:1079800021F00E94763C1150E1F71F9108951F935A
:10799000182F0E94763C803249F0809103018F5F5E
:1079A000809303018530C1F01F9108958091C0003C
:1079B00085FFFCCF84E18093C6008091C00085FFE5
:1079C000FCCF1093C6008091C00085FFFCCF80E102
:1079D0008093C6001F910895E0910401F091050184
:1079E00009951F9108950E94763C803241F0809164
:1079F00003018F5F80930301853081F008958091AA
:107A0000C00085FFFCCF84E18093C6008091C00058
:107A100085FFFCCF80E18093C6000895E0910401CA
:107A2000F09105010995089540E951E08823A1F0FE
:107A30002D9A28EE33E0FA013197F1F721503040CA
:107A4000D1F72D9828EE33E0FA013197F1F7215064
:107A50003040D1F7815061F708953F924F925F9285
:107A60006F927F928F929F92AF92BF92CF92DF924E
:107A7000EF92FF920F931F93CF93DF93000080E16B
:107A80008093C4001092C50088E18093C10086E015
:107A90008093C2005098589A259A81E00E94143D24
:107AA00024E1F22E9EE1E92E85E9D82E0FE0C02ECA
:107AB00010E1B12EAA24A394B1E49B2EA6E58A2E50
:107AC000F2E57F2EE0E26E2E79E4572E63E5462E36
:107AD00050E5352E0E94763C8033B1F18133B9F107
:107AE000803409F46FC0813409F476C0823409F41B
:107AF00085C0853409F488C0803531F1823521F1A3
:107B0000813511F1853509F485C0863509F48DC0BC
:107B1000843609F496C0843709F403C1853709F423
:107B200072C1863709F466C0809103018F5F80932C
:107B30000301853079F6E0910401F0910501099582
:107B40000E94763C803351F60E94F33CC3CF0E94E2
:107B5000763C803249F78091C00085FFFCCFF092DF
:107B6000C6008091C00085FFFCCF9092C600809136
:107B7000C00085FFFCCF8092C6008091C00085FFC9
:107B8000FCCF7092C6008091C00085FFFCCF609250
:107B9000C6008091C00085FFFCCF5092C600809146
:107BA000C00085FFFCCF4092C6008091C00085FFD9
:107BB000FCCF3092C6008091C00085FFFCCFB09210
:107BC000C60088CF0E94763C863808F4BDCF0E945C
:107BD000763C0E94F33C7ECF0E94763C803809F4CC
:107BE0009CC0813809F40BC1823809F43CC1883942
:107BF00009F48FC080E00E94C73C6CCF84E10E94F2
:107C0000BD3C0E94F33C66CF85E00E94BD3C0E94D3
:107C1000F33C60CF0E94763C809306010E94763C44
:107C2000809307010E94F33C55CF0E94763C80333D
:107C300009F41DC183E00E94BD3C80E00E94C73C66
:107C400049CF0E94763C809309020E94763C809343
:107C5000080280910C028E7F80930C020E94763C79
:107C6000853409F415C18091080290910902892B8D
:107C700089F000E010E00E94763CF801E85FFE4FDA
:107C800080830F5F1F4F80910802909109020817AF
:107C9000190788F30E94763C803209F045CF809125
:107CA0000C0280FF01C16091060170910701660F0F
:107CB000771F7093070160930601A0910802B091AD
:107CC00009021097C9F0E8E0F1E09B01AD014E0F09
:107CD0005F1FF999FECF32BD21BD819180BDFA9A17
:107CE000F99A2F5F3F4FE417F50799F76A0F7B1F4B
:107CF00070930701609306018091C00085FFFCCF5F
:107D0000F092C6008091C00085FFFCCFB092C60003
:107D1000E1CE83E00E94C73CDDCE82E00E94C73CFA
:107D2000D9CE0E94763C809309020E94763C8093D3
:107D300008028091060190910701880F991F909386
:107D40000701809306010E94763C853409F4A6C0A1
:107D500080910C028E7F80930C020E94763C8032D0
:107D600009F0B8CE8091C00085FFFCCFF092C6002C
:107D7000609108027091090261157105B9F140E046
:107D800050E080910C02A82FA170B82FB27011C0E2
:107D9000BB2309F45CC0E0910601F0910701319624
:107DA000F0930701E09306014F5F5F4F46175707B7
:107DB000E8F4AA2369F3F999FECF209106013091E6
:107DC000070132BD21BDF89A90B58091C00085FFB2
:107DD000FCCF9093C6002F5F3F4F30930701209355
:107DE00006014F5F5F4F4617570718F38091C00099
:107DF00085FDE5CE8091C00085FFF8CFE0CE81E023
:107E00000E94C73C67CE0E94763C803209F08CCE3F
:107E10008091C00085FFFCCFF092C6008091C00029
:107E200085FFFCCFE092C6008091C00085FFFCCFAB
:107E3000D092C6008091C00085FFFCCFC092C600E2
:107E40008091C00085FFFCCFB092C60043CEE09188
:107E50000601F091070194918091C00085FFFCCF4D
:107E60009093C6009CCF80E10E94C73C33CE0E9415
:107E7000763C0E94763C182F0E94763C112309F430
:107E800083C0113009F484C08FE00E94C73C22CE29
:107E900080910C02816080930C02E5CE80910C02EF
:107EA000816080930C0259CF809107018823880F4D
:107EB000880B8A2180930B02809106019091070123
:107EC000880F991F90930701809306018091080203
:107ED00080FF09C080910802909109020196909359
:107EE000090280930802F894F999FECF1127E091D6
:107EF0000601F0910701C8E0D1E08091080290915D
:107F00000902103091F40091570001700130D9F34B
:107F100003E000935700E89500915700017001308D
:107F2000D9F301E100935700E89509901990009169
:107F3000570001700130D9F301E000935700E89534
:107F40001395103498F011270091570001700130FB
:107F5000D9F305E000935700E895009157000170B0
:107F60000130D9F301E100935700E895329602976A
:107F700009F0C7CF103011F00296E5CF112480919F
:107F8000C00085FFB9CEBCCE8EE10E94C73CA2CD19
:0C7F900085E90E94C73C9ECDF894FFCF0D
:027F9C00800063
:040000030000780081
:00000001FF