:100000000C945D000C9485000C9485000C94850084
:100010000C9485000C9485000C9485000C9485004C
:100020000C9485000C9485000C9485000C9485003C
:100030000C9485000C9485000C9485000C9485002C
:100040000C944D040C9485000C941B040C94F50343
:100050000C9485000C9485000C9485000C9485000C
:100060000C9485000C9485000000000024002700FB
:100070002A0000000000250028002B0004040404CE
:100080000404040402020202020203030303030342
:10009000010204081020408001020408102001021F
:1000A00004081020000000080002010000030407FB
:1000B0000000000000000000970411241FBECFEFD5
:1000C000D8E0DEBFCDBF22E0A6E4B1E001C01D92C2
:1000D000A435B207E1F711E0A0E0B1E0EEE8F0E10D
:1000E00002C005900D92A634B107D9F710E0CDE516
:1000F000D0E004C02197FE010E943A08CC35D10718
:10010000C9F70E94D6040C9445080C940000EFE651
:10011000F1E0A089B18982E08C93A485B5851C9219
:10012000A685B7858FEC8C93108EA489B58986E05F
:100130008C93A289B3898C9180618C93A289B389B5
:100140008C9188608C93A289B3898C9180688C9300
:100150000288F389E02D80818F7D80830895EBEA0A
:10016000F0E09491E7E9F0E02491E3E8F0E0E49135
:10017000EE2309F43CC0992339F1933091F038F41F
:100180009130A9F0923001F594B59F7D12C097305F
:1001900091F09830A1F09430B9F4909180009F7D57
:1001A00003C0909180009F77909380000DC094B51C
:1001B0009F7794BD09C09091B0009F7703C0909144
:1001C000B0009F7D9093B000F0E0EE0FFF1FEE585F
:1001D000FF4FA591B4919FB7F894811104C08C9101
:1001E0002095282302C0EC912E2B2C939FBF0895BD
:1001F000E7E9F0E02491E3E8F0E08491882399F0C6
:1002000090E0880F991FFC01E859FF4FA591B49128
:10021000FC01EE58FF4F859194918FB7F894EC91C3
:10022000E22BEC938FBF0895CF92DF92EF92FF9273
:100230000F931F93CF93DF936C017A018B01C0E082
:10024000D0E0CE15DF0581F0D8016D918D01D6018A
:10025000ED91FC910190F081E02DC6010995892B6B
:1002600011F02196EECF7E01C701DF91CF911F9152
:100270000F91FF90EF90DF90CF900895089580E068
:1002800090E00895FC01538D448D252F30E0842F9C
:1002900090E0821B930B541710F0CF9608950197AE
:1002A0000895FC01918D828D981761F0828DDF0198
:1002B000A80FB11D5D968C91928D9F5F9F73928F59
:1002C00090E008958FEF9FEF0895FC01918D828D4E
:1002D000981731F0828DE80FF11D858D90E008951B
:1002E0008FEF9FEF0895FC01918D228D892F90E073
:1002F000805C9F4F821B91098F73992708958FE629
:1003000091E00E94730121E0892B09F420E0822F03
:100310000895FC01848DDF01A80FB11DA35ABF4FC2
:100320002C91848D90E001968F739927848FA689F4
:10033000B7892C93A089B1898C91837080648C9348
:10034000938D848D981306C00288F389E02D8081F7
:100350008F7D80830895EF92FF920F931F93CF9329
:10036000DF93EC0181E0888F9B8D8C8D981305C005
:10037000E889F989808185FD26C0F62E0B8D10E075
:100380000F5F1F4F0F731127E02E8C8DE8120CC0EA
:100390000FB607FCFACFE889F989808185FFF5CF90
:1003A000CE010E948901F1CF8B8DFE01E80FF11D76
:1003B000E35AFF4FF0829FB7F8940B8FEA89FB89CD
:1003C000808180620AC09FB7F894EE89FF896083BC
:1003D000E889F98980818370806480839FBF81E090
:1003E00090E0DF91CF911F910F91FF90EF900895D2
:1003F000CF93DF93EC01888D8823C9F0EA89FB89CC
:10040000808185FD05C0A889B9898C9186FD0FC0C2
:100410000FB607FCF5CF808185FFF2CFA889B98997
:100420008C9185FFEDCFCE010E948901E7CFDF914E
:10043000CF91089580E090E0892B29F00E947F0100
:1004400081110C94000008952FB7F89460914B012E
:1004500070914C0180914D0190914E012FBF0895F4
:100460000E9424026093120270931302809314027C
:100470009093150208958F929F92AF92BF92CF9260
:10048000DF92EF92FF926B017C010E9424024B01EC
:100490005C01C60ED71EE81EF91E0E9424026815D4
:1004A00079058A059B0528F0C616D706E806F906E1
:1004B000A0F7FF90EF90DF90CF90BF90AF909F900C
:1004C0008F9008950C943B020F931F93811123C0CA
:1004D0000E94240200910E0210910F02209110023E
:1004E00030911102DC01CB01801B910BA20BB30BED
:1004F00081329105A105B10570F441E250E060E060
:1005000070E08A019B01081B190B2A0B3B0BC901E8
:10051000B8010E943B020E94240260930E02709375
:100520000F02809310029093110281E01F910F91AE
:100530000895CF93DF93CCE0D2E084EF91E0A0E088
:10054000B0E08E879F87A88BB98B1A8A1B8A1C8A7A
:100550001D8A8E819F81A885B9858A879B87AC87F4
:10056000BD870E9424026E837F8388879987DF91ED
:10057000CF9108950E9440086115710579F0FB0143
:1005800001900020E9F73197AF01461B570BDC01C2
:10059000ED91FC910280F381E02D099480E090E0E0
:1005A0000895CF93DF93C0914E02D0914F0262E144
:1005B00071E0CE010E94BC0266E271E0CE01DF91E3
:1005C000CF910C94BC028F929F92AF92BF92EF9208
:1005D000FF920F931F93CF93DF93CDB7DEB7A19711
:1005E0000FB6F894DEBF0FBECDBF7C01FA01CB0180
:1005F00019A2223008F42AE08E010F5D1F4F822ECF
:10060000912CA12CB12CBF01A50194010E941808C6
:10061000F901CA01015011096A3014F4605D01C08A
:10062000695CD8016C93232B242B252B61F7B8012F
:10063000C7010E94BC02A1960FB6F894DEBF0FBEA0
:10064000CDBFDF91CF911F910F91FF90EF90BF90A1
:10065000AF909F908F900895CF939091220299230D
:1006600009F45BC0C82F80914E0290914F02DC01CB
:10067000ED91FC910084F185E02D0995811114C064
:1006800085E64CC080914E0290914F02DC01ED91C5
:10069000FC910284F385E02D09958836F1F190F004
:1006A0008137D9F18637D1F180914E0290914F0276
:1006B000DC01ED91FC910084F185E02D099581111B
:1006C000E1CFDECF883539F1833671F781E00E94C2
:1006D000640269E171E080914E0290914F020E94A4
:1006E000BC024C2F50E060E070E02AE080914E02A6
:1006F00090914F020E94E30260E271E080914E020D
:1007000090914F020E94BC0262E370E080E090E0B2
:100710000E94620202C01092220283E6CF910895E5
:10072000BF92CF92DF92EF92FF920F931F93CF93DE
:10073000DF93B82E0E9424026B017C010CE012E0D2
:10074000CEE4D2E069E271E0888199810E94BC0226
:100750004B2D50E060E070E02AE0888199810E9492
:10076000E30260E371E0888199810E94BC022AE083
:10077000B701A601888199810E94E30262E371E0DA
:10078000888199810E94BC02F80186819781A085A9
:10079000B185B701A601481B590B6A0B7B0B2AE0F8
:1007A000888199810E94E30262E371E088819981E6
:1007B0000E94BC02F801468157816085718582855F
:1007C0009385A485B585481B590B6A0B7B0B2AE0E2
:1007D00088819981DF91CF911F910F91FF90EF90C8
:1007E000DF90CF90BF900C94E3021F920F920FB650
:1007F0000F9211242F933F934F935F936F937F93A7
:100800008F939F93AF93BF93EF93FF938FE691E006
:100810000E948901FF91EF91BF91AF919F918F91BC
:100820007F916F915F914F913F912F910F900FBEEC
:100830000F901F9018951F920F920FB60F921124D0
:100840002F938F939F93EF93FF93E0917F01F0910C
:1008500080018081E0918501F091860182FD12C0C6
:100860009081809188018F5F8F7320918901821719
:1008700051F0E0918801F0E0E159FE4F958F8093AF
:10088000880101C08081FF91EF919F918F912F91FD
:100890000F900FBE0F901F9018951F920F920FB6DA
:1008A0000F9211242F933F938F939F93AF93BF93F6
:1008B00080914B0190914C01A0914D01B0914E015E
:1008C00030914A0123E0230F2D3720F40196A11D1A
:1008D000B11D05C026E8230F0296A11DB11D20936E
:1008E0004A0180934B0190934C01A0934D01B0932A
:1008F0004E018091460190914701A0914801B0912D
:1009000049010196A11DB11D8093460190934701B5
:10091000A0934801B0934901BF91AF919F918F91EE
:100920003F912F910F900FBE0F901F901895EFE6FB
:10093000F1E01382128288EE93E0A0E0B0E08483BD
:100940009583A683B78384E091E09183808385ECCF
:1009500090E09587848784EC90E09787868780EC89
:1009600090E0918B808B81EC90E0938B828B82EC7A
:1009700090E0958B848B86EC90E0978B868B118E24
:10098000128E138E148EECE0F2E01682178210861F
:100990001186128613861486158616861786108A87
:1009A000118A128A138A148A158A0895789484B554
:1009B000826084BD84B5816084BD85B5826085BD5B
:1009C00085B5816085BD80916E00816080936E00E9
:1009D00010928100809181008260809381008091DB
:1009E000810081608093810080918000816080938C
:1009F00080008091B10084608093B1008091B0004C
:100A000081608093B00080917A00846080937A0046
:100A100080917A00826080937A0080917A00816070
:100A200080937A0080917A00806880937A00109297
:100A3000C100109250021092510210925202109274
:100A4000530210920E0210920F0210921002109296
:100A5000110268EB7BE080E090E00E9462028FE68A
:100A600091E090934F0280934E020E9487000E9473
:100A7000240260930E0270930F02809310029093F1
:100A8000110264E371E080914E0290914F020E9446
:100A9000BC026AE070E080E090E00E94620281E0C7
:100AA000809322020E9487000E94F80081E00E9449
:100AB000AF000E94990262E070E080E090E00E9446
:100AC00062026AE070E080E090E00E94620285E6E7
:100AD0008093230280912302833609F43FC0853638
:100AE00099F580911E0290911F02A0912002B09171
:100AF00021020196A11DB11D80931E0290931F0239
:100B0000A0932002B093210240911A0250911B023F
:100B100060911C0270911D02452B462B472B21F43E
:100B2000892B8A2B8B2B81F480E00E94640288231E
:100B300029F084E00E9490030E94D10264EF71E0EA
:100B400080E090E00E943B026AE070E080E090E08C
:100B50000E94620284E00E942C03BACF0E943002FD
:100B600095E6F92EC7E0D0E003E010E020E1E22EA8
:100B70000E94990262E070E080E090E00E946202D0
:100B80006AE070E080E090E00E946202F09223024E
:100B900080912302833609F441C0853699F580910E
:100BA0001E0290911F02A0912002B0912102019695
:100BB000A11DB11D80931E0290931F02A0932002DD
:100BC000B093210240911A0250911B0260911C02C5
:100BD00070911D02452B462B472B21F4892B8A2B24
:100BE0008B2B81F480E00E946402882329F083E04B
:100BF0000E9490030E94D10264EF71E080E090E0D7
:100C00000E943B026AE070E080E090E00E94620295
:100C100083E00E942C0380932302BACF0E9430020B
:100C2000F8940E94990262E070E080E090E00E94F7
:100C300062026AE070E080E090E00E946202F0925E
:100C4000230280912302833609F441C0853699F549
:100C500080911E0290911F02A0912002B09121026A
:100C60000196A11DB11D80931E0290931F02A093B7
:100C70002002B093210240911A0250911B02609110
:100C80001C0270911D02452B462B472B21F4892B0A
:100C90008A2B8B2B81F480E00E946402882329F048
:100CA00085E00E9490030E94D10264EF71E080E031
:100CB00090E00E943B026AE070E080E090E00E94D9
:100CC000620285E00E942C0380932302BACF0E9427
:100CD00030020E94F8000E94990262E070E080E019
:100CE00090E00E9462026AE070E080E090E00E9482
:100CF0006202F092230280912302833609F441C0FC
:100D0000853699F580911E0290911F02A0912002D4
:100D1000B09121020196A11DB11D80931E029093F6
:100D20001F02A0932002B093210240911A02509119
:100D30001B0260911C0270911D02452B462B472B14
:100D400021F4892B8A2B8B2B81F480E00E94640292
:100D5000882329F086E00E9490030E94D10264EF6C
:100D600071E080E090E00E943B026AE070E080E089
:100D700090E00E94620286E00E942C03809323028E
:100D8000BACF0E94300281E00E94AF000E94990217
:100D900062E070E080E090E00E9462026AE070E051
:100DA00080E090E00E946202F09223028091230290
:100DB000833609F441C0853699F580911E029091E1
:100DC0001F02A0912002B09121020196A11DB11D28
:100DD00080931E0290931F02A0932002B0932102E1
:100DE00040911A0250911B0260911C0270911D02E9
:100DF000452B462B472B21F4892B8A2B8B2B81F4F7
:100E000080E00E946402882329F087E00E9490031A
:100E10000E94D10264EF71E080E090E00E943B020A
:100E20006AE070E080E090E00E94620287E00E9449
:100E30002C0380932302BACF0E9430020E949902B1
:100E400062E070E080E090E00E9462026AE070E0A0
:100E500080E090E00E946202F092230280912302DF
:100E6000833609F441C0853699F580911E02909130
:100E70001F02A0912002B09121020196A11DB11D77
:100E800080931E0290931F02A0932002B093210230
:100E900040911A0250911B0260911C0270911D0238
:100EA000452B462B472B21F4892B8A2B8B2B81F446
:100EB00080E00E946402882329F082E00E9490036F
:100EC0000E94D10264EF71E080E090E00E943B025A
:100ED0006AE070E080E090E00E94620282E00E949E
:100EE0002C0380932302BACF0E94300288E0C82EE0
:100EF000D12C80E00E94AF00CE010197F1F781E094
:100F00000E94AF0081E0C81AD10899F780E00E94E2
:100F1000AF0081E00E94AF00C8010197F1F78AB1EC
:100F20008AB9EBB8789420E130E080E0880F4C99E2
:100F3000FECF40E450E0000041505109E1F749B1D3
:100F400042954170482B842F40FD02C04C9BFECF40
:100F50002150310959F740935001042E000C550BD4
:100F6000660B770B20E18FE691E00E94E30266E2D8
:100F700071E08FE691E00E94BC020E94990262E05B
:100F800070E080E090E00E9462026AE070E080E041
:100F900090E00E946202F092230280912302833645
:100FA00009F441C0853699F580911E0290911F0287
:100FB000A0912002B09121020196A11DB11D809344
:100FC0001E0290931F02A0932002B0932102409131
:100FD0001A0250911B0260911C0270911D02452B58
:100FE000462B472B21F4892B8A2B8B2B81F480E015
:100FF0000E946402882329F081E00E9490030E94ED
:10100000D10264EF71E080E090E00E943B026AE070
:1010100070E080E090E00E94620281E00E942C0378
:1010200080932302BACF0E9430020E941A02A0CD00
:10103000A1E21A2EAA1BBB1BFD010DC0AA1FBB1FDC
:10104000EE1FFF1FA217B307E407F50720F0A21B4E
:10105000B30BE40BF50B661F771F881F991F1A94BB
:1010600069F760957095809590959B01AC01BD01E5
:10107000CF010895EE0FFF1F0590F491E02D099424
:0E10800081E090E0F8940C944508F894FFCFBE
:10108E0000000000AB0114014201F801730151018F
:10109E0065015F564D44504500564D4450435F0028
:1010AE005F564D4450430D0A00564D4450455F0067
:1010BE003A323A00564D4450565F317C315F564DB0
:0610CE004450560D0A001B
:00000001FF
