:100000000C945D000C9485000C9485000C94850084
:100010000C9485000C9485000C9485000C9485004C
:100020000C9485000C9485000C9485000C9485003C
:100030000C9485000C9485000C9485000C9485002C
:100040000C942E030C9485000C94FC020C94D602A4
:100050000C9485000C9485000C9485000C9485000C
:100060000C9485000C9485000000000024002700FB
:100070002A0000000000250028002B0004040404CE
:100080000404040402020202020203030303030342
:10009000010204081020408001020408102001021F
:1000A00004081020000000080002010000030407FB
:1000B0000000000000000000780311241FBECFEFF5
:1000C000D8E0DEBFCDBF26E0AAE4B1E001C01D92BA
:1000D000A833B207E1F711E0A0E0B1E0E4EEFCE004
:1000E00002C005900D92AA34B107D9F710E0CDE512
:1000F000D0E004C02197FE010E946506CC35D107EF
:10010000C9F70E94B7030C9470060C940000E3E555
:10011000F5E0A089B18982E08C93A485B5851C9215
:10012000A685B7858FEC8C93108EA489B58986E05F
:100130008C93A289B3898C9180618C93A289B389B5
:100140008C9188608C93A289B3898C9180688C9300
:100150000288F389E02D80818F7D80830895E8EA0D
:10016000F0E09491E4E9F0E02491E0E8F0E0E4913B
:10017000EE2309F43CC0992339F1933091F038F41F
:100180009130A9F0923001F594B59F7D12C097305F
:1001900091F09830A1F09430B9F4909180009F7D57
:1001A00003C0909180009F77909380000DC094B51C
:1001B0009F7794BD09C09091B0009F7703C0909144
:1001C000B0009F7D9093B000F0E0EE0FFF1FEE585F
:1001D000FF4FA591B4919FB7F894811104C08C9101
:1001E0002095282302C0EC912E2B2C939FBF0895BD
:1001F000CF93DF93E4E9F0E09491E0E8F0E024911C
:10020000222361F130E0220F331FF901E859FF4F3B
:10021000A591B491F901EE58FF4FC591D491811188
:1002200009C02FB7F8948C91909589238C93E8811D
:100230009E230BC0823061F42FB7F8948C91392F34
:10024000309583238C93E8819E2B98832FBF06C023
:100250008FB7F894EC919E2B9C938FBFDF91CF9139
:100260000895CF92DF92EF92FF920F931F93CF9357
:10027000DF936C017A018B01C0E0D0E0CE15DF0581
:1002800081F0D8016D918D01D601ED91FC91019025
:10029000F081E02DC6010995892B11F02196EECF52
:1002A0007E01C701DF91CF911F910F91FF90EF90D9
:1002B000DF90CF900895089580E090E00895FC01CC
:1002C000538D448D252F30E0842F90E0821B930BBB
:1002D000541710F0CF96089501970895FC01918D61
:1002E000828D981761F0828DDF01A80FB11D5D9698
:1002F0008C91928D9F5F9F73928F90E008958FEF06
:100300009FEF0895FC01918D828D981731F0828DB9
:10031000E80FF11D858D90E008958FEF9FEF089510
:10032000FC01918D228D892F90E0805C9F4F821B74
:1003300091098F739927089583E595E00E949001B4
:1003400021E0892B09F420E0822F0895FC01848D9F
:10035000DF01A80FB11DA35ABF4F2C91848D90E0EF
:1003600001968F739927848FA689B7892C93A089CA
:10037000B1898C91837080648C93938D848D981354
:1003800006C00288F389E02D80818F7D80830895E7
:10039000EF92FF920F931F93CF93DF93EC0181E0D5
:1003A000888F9B8D8C8D981305C0E889F989808191
:1003B00085FD26C0F62E0B8D10E00F5F1F4F0F73CB
:1003C0001127E02E8C8DE8120CC00FB607FCFACF77
:1003D000E889F989808185FFF5CFCE010E94A601C9
:1003E000F1CF8B8DFE01E80FF11DE35AFF4FF08234
:1003F0009FB7F8940B8FEA89FB89808180620AC0DD
:100400009FB7F894EE89FF896083E889F989808134
:100410008370806480839FBF81E090E0DF91CF9103
:100420001F910F91FF90EF900895CF93DF93EC0110
:10043000888D8823C9F0EA89FB89808185FD05C004
:10044000A889B9898C9186FD0FC00FB607FCF5CF3E
:10045000808185FFF2CFA889B9898C9185FFEDCF86
:10046000CE010E94A601E7CFDF91CF91089580E0F1
:1004700090E0892B29F00E949C0181110C940000CE
:1004800008952FB7F89460914F01709150018091B9
:100490005101909152012FBF08958F929F92AF9278
:1004A000BF92CF92DF92EF92FF926B017C010E948C
:1004B00041024B015C01C60ED71EE81EF91E0E94C8
:1004C0004102681579058A059B0528F0C616D706EE
:1004D000E806F906A0F7FF90EF90DF90CF90BF906D
:1004E000AF909F908F9008950E946B0661157105E3
:1004F00079F0FB0101900020E9F73197AF01461B2D
:10050000570BDC01ED91FC910280F381E02D099401
:1005100080E090E008958F929F92AF92BF92EF9209
:10052000FF920F931F93CF93DF93CDB7DEB7A197C1
:100530000FB6F894DEBF0FBECDBF7C01FA01CB0130
:1005400019A2223008F42AE08E010F5D1F4F822E7F
:10055000912CA12CB12CBF01A50194010E9443064E
:10056000F901CA01015011096A3014F4605D01C03B
:10057000695CD8016C93232B242B252B61F7B801E0
:10058000C7010E947602A1960FB6F894DEBF0FBE97
:10059000CDBFDF91CF911F910F91FF90EF90BF9052
:1005A000AF909F908F9008950C9476021F920F92B7
:1005B0000FB60F9211242F933F934F935F936F9336
:1005C0007F938F939F93AF93BF93EF93FF9383E5B5
:1005D00095E00E94A601FF91EF91BF91AF919F918D
:1005E0008F917F916F915F914F913F912F910F90DC
:1005F0000FBE0F901F9018951F920F920FB60F927B
:1006000011242F938F939F93EF93FF93E0916305B2
:10061000F09164058081E0916905F0916A0582FDA1
:1006200012C0908180916C058F5F8F7320916D0552
:10063000821751F0E0916C05F0E0ED5AFA4F958F7A
:1006400080936C0501C08081FF91EF919F918F9104
:100650002F910F900FBE0F901F9018951F920F9221
:100660000FB60F9211242F933F938F939F93AF93C5
:10067000BF9380914F0190915001A0915101B09191
:10068000520130914E0123E0230F2D3720F40196C3
:10069000A11DB11D05C026E8230F0296A11DB11DA5
:1006A00020934E0180934F0190935001A0935101EC
:1006B000B093520180914A0190914B01A0914C015D
:1006C000B0914D010196A11DB11D80934A019093F7
:1006D0004B01A0934C01B0934D01BF91AF919F91FD
:1006E0008F913F912F910F900FBE0F901F901895F3
:1006F000E3E5F5E01382128288EE93E0A0E0B0E03B
:1007000084839583A683B78384E091E0918380837B
:1007100085EC90E09587848784EC90E097878687C6
:1007200080EC90E0918B808B81EC90E0938B828BBE
:1007300082EC90E0958B848B86EC90E0978B868B97
:10074000118E128E138E148EE0EFF5E01682178252
:1007500010861186128613861486158616861786CD
:10076000108A118A128A138A148A158A0895789435
:1007700084B5826084BD84B5816084BD85B58260A6
:1007800085BD85B5816085BD80916E008160809357
:100790006E001092810080918100826080938100C0
:1007A00080918100816080938100809180008160D0
:1007B000809380008091B10084608093B10080912B
:1007C000B00081608093B00080917A008460809353
:1007D0007A0080917A00826080937A0080917A001A
:1007E000816080937A0080917A00806880937A009B
:1007F0001092C100109234061092350610923606FF
:10080000109237061092F2051092F3051092F4053B
:100810001092F50568EB7BE080E090E00E944D02CD
:1008200083E595E090933306809332060E9487001B
:100830000E9441026093F2057093F3058093F405E2
:100840009093F50562E171E0809132069091330654
:100850000E94D4026AE070E080E090E00E944D02C5
:1008600081E0809306060E94870081E00E94F800E4
:1008700081E00E94AF0093E0292E312C24EF822EDC
:1008800099249394A12CB12CD5E631E2432E512C1E
:10089000612C712CF89481E00E94F80081E00E94A4
:1008A000AF0008E010E080E00E94AF0087E090E039
:1008B0000197F1F781E00E94AF000150110999F70B
:1008C00080E00E94AF0081E00E94AF00C10101976B
:1008D000F1F780E00E94F80081E00E94AF00789478
:1008E00083E5E82E81E0F82EF70189B180718193CC
:1008F00023E532E02E173F07C1F700E010E0C80102
:1009000087709927892B31F467E471E083E595E0DE
:100910000E947602F701C0E080E090E0CC0F4191A8
:10092000C40F019688309105C9F7C03130F464E2F4
:1009300071E083E595E00E94D4024C2F50E060E026
:1009400070E020E183E595E00E948B0266E271E0B1
:1009500083E595E00E94D4020F5F1F4F38E0E30E5D
:10096000F11C0032110559F667E471E083E595E06A
:100970000E9476028092FE059092FF05A0920006EA
:10098000B09201061092020610920306109204061D
:10099000109205068091F6059091F705A091F80553
:1009A000B091F9058093FA059093FB05A093FC059F
:1009B000B093FD050E9441026093F6057093F70520
:1009C0008093F8059093F90562E070E080E090E094
:1009D0000E944D026AE070E080E090E00E944D02CB
:1009E000D093070680910706833609F43FC1853608
:1009F00009F0C9C08091020690910306A0910406F7
:100A0000B09105060196A11DB11D80930206909339
:100A10000306A0930406B09305064091FE0550918D
:100A2000FF056091000670910106452B462B472B70
:100A300029F4892B8A2B8B2B09F0A5C00E94410237
:100A40000091F2051091F3052091F4053091F50520
:100A5000DC01CB01801B910BA20BB30B8132910502
:100A6000A105B10550F4A3019201281B390B4A0BD3
:100A70005B0BCA01B9010E944D020E9441026093C2
:100A8000F2057093F3058093F4059093F5050E94A9
:100A900041026B017C0168E271E080913206909125
:100AA00033060E94D4022AE041E050E060E070E0AA
:100AB00080913206909133060E948B026FE271E0C2
:100AC00080913206909133060E94D4022AE0B70149
:100AD000A60180913206909133060E948B0261E359
:100AE00071E080913206909133060E94D402809189
:100AF000F6059091F705A091F805B091F905B701B9
:100B0000A601481B590B6A0B7B0B2AE08091320629
:100B1000909133060E948B0261E371E0809132066E
:100B2000909133060E94D4024091F6055091F7054A
:100B30006091F8057091F9058091FA059091FB0597
:100B4000A091FC05B091FD05481B590B6A0B7B0B6E
:100B50002AE080913206909133060E948B02009128
:100B600032061091330663E371E0C8010E947602F9
:100B700067E471E0C8010E94760264EF71E080E0F2
:100B800090E00E944D026AE070E080E090E00E94F8
:100B90004D0280910606882309F464C080913206D4
:100BA00090913306DC01ED91FC910084F185E02DFC
:100BB0000995811117C085E656C080913206909143
:100BC0003306DC01ED91FC910284F385E02D09955B
:100BD000883609F447C0A0F0813709F443C086374E
:100BE00009F441C08091320690913306DC01ED9109
:100BF000FC910084F185E02D09958111DECFDBCFDA
:100C0000883571F1833671F70E9441026093F205D5
:100C10007093F3058093F4059093F5056AE371E012
:100C200080913206909133060E94D4022AE041E07E
:100C300050E060E070E080913206909133060E94AF
:100C40008B0261E471E080913206909133060E943C
:100C5000D40262E370E080E090E00E944D0202C0A6
:100C60001092060683E680930706BCCE0E944102DE
:100C70006093F6057093F7058093F8059093F90556
:100C80000E94370207CEA1E21A2EAA1BBB1BFD0150
:100C90000DC0AA1FBB1FEE1FFF1FA217B307E4075B
:100CA000F50720F0A21BB30BE40BF50B661F771FB3
:100CB000881F991F1A9469F7609570958095909593
:100CC0009B01AC01BD01CF010895EE0FFF1F059000
:100CD000F491E02D099481E090E0F8940C94700672
:040CE000F894FFCFB6
:100CE40000000000C80131015F01150290016E018E
:100CF4008201564D4450565F317C315F564D44500D
:100D0400560D0A0030002000564D4450455F003A0D
:100D1400323A005F564D44504500564D4450435FAF
:0A0D2400005F564D4450430D0A00D5
:107800000C94343C0C94513C0C94513C0C94513CE1
:107810000C94513C0C94513C0C94513C0C94513CB4
:107820000C94513C0C94513C0C94513C0C94513CA4
:107830000C94513C0C94513C0C94513C0C94513C94
:107840000C94513C0C94513C0C94513C0C94513C84
:107850000C94513C0C94513C0C94513C0C94513C74
:107860000C94513C0C94513C11241FBECFEFD8E036
:10787000DEBFCDBF11E0A0E0B1E0ECE9FFE702C060
:1078800005900D92A230B107D9F712E0A2E0B1E065
:1078900001C01D92AD30B107E1F70E942D3D0C945F
:1078A000CC3F0C94003C982F959595959595959582
:1078B000905D8F708A307CF0282F295A8091C0000B
:1078C00085FFFCCF9093C6008091C00085FFFCCF60
:1078D0002093C6000895282F205DF0CF982F809127
:1078E000C00085FFFCCF9093C6000895EF92FF92F1
:1078F0000F931F93EE24FF2487018091C00087FD22
:1079000017C00894E11CF11C011D111D81E4E8164B
:1079100082E4F8068FE0080780E0180770F3E09132
:107920000401F091050109958091C00087FFE9CF1E
:107930008091C6001F910F91FF90EF9008950E94D3
:10794000763C982F8091C00085FFFCCF9093C600B5
:1079500091362CF490330CF09053892F089597555D
:10796000892F08951F930E949F3C182F0E949F3CCF
:107970001295107F810F1F9108951F93182F882350
:1079800021F00E94763C1150E1F71F9108951F935A
:10799000182F0E94763C803249F0809103018F5F5E
:1079A000809303018530C1F01F9108958091C0003C
:1079B00085FFFCCF84E18093C6008091C00085FFE5
:1079C000FCCF1093C6008091C00085FFFCCF80E102
:1079D0008093C6001F910895E0910401F091050184
:1079E00009951F9108950E94763C803241F0809164
:1079F00003018F5F80930301853081F008958091AA
:107A0000C00085FFFCCF84E18093C6008091C00058
:107A100085FFFCCF80E18093C6000895E0910401CA
:107A2000F09105010995089540E951E08823A1F0FE
:107A30002D9A28EE33E0FA013197F1F721503040CA
:107A4000D1F72D9828EE33E0FA013197F1F7215064
:107A50003040D1F7815061F708953F924F925F9285
:107A60006F927F928F929F92AF92BF92CF92DF924E
:107A7000EF92FF920F931F93CF93DF93000080E16B
:107A80008093C4001092C50088E18093C10086E015
:107A90008093C2005098589A259A81E00E94143D24
:107AA00024E1F22E9EE1E92E85E9D82E0FE0C02ECA
:107AB00010E1B12EAA24A394B1E49B2EA6E58A2E50
:107AC000F2E57F2EE0E26E2E79E4572E63E5462E36
:107AD00050E5352E0E94763C8033B1F18133B9F107
:107AE000803409F46FC0813409F476C0823409F41B
:107AF00085C0853409F488C0803531F1823521F1A3
:107B0000813511F1853509F485C0863509F48DC0BC
:107B1000843609F496C0843709F403C1853709F423
:107B200072C1863709F466C0809103018F5F80932C
:107B30000301853079F6E0910401F0910501099582
:107B40000E94763C803351F60E94F33CC3CF0E94E2
:107B5000763C803249F78091C00085FFFCCFF092DF
:107B6000C6008091C00085FFFCCF9092C600809136
:107B7000C00085FFFCCF8092C6008091C00085FFC9
:107B8000FCCF7092C6008091C00085FFFCCF609250
:107B9000C6008091C00085FFFCCF5092C600809146
:107BA000C00085FFFCCF4092C6008091C00085FFD9
:107BB000FCCF3092C6008091C00085FFFCCFB09210
:107BC000C60088CF0E94763C863808F4BDCF0E945C
:107BD000763C0E94F33C7ECF0E94763C803809F4CC
:107BE0009CC0813809F40BC1823809F43CC1883942
:107BF00009F48FC080E00E94C73C6CCF84E10E94F2
:107C0000BD3C0E94F33C66CF85E00E94BD3C0E94D3
:107C1000F33C60CF0E94763C809306010E94763C44
:107C2000809307010E94F33C55CF0E94763C80333D
:107C300009F41DC183E00E94BD3C80E00E94C73C66
:107C400049CF0E94763C809309020E94763C809343
:107C5000080280910C028E7F80930C020E94763C79
:107C6000853409F415C18091080290910902892B8D
:107C700089F000E010E00E94763CF801E85FFE4FDA
:107C800080830F5F1F4F80910802909109020817AF
:107C9000190788F30E94763C803209F045CF809125
:107CA0000C0280FF01C16091060170910701660F0F
:107CB000771F7093070160930601A0910802B091AD
:107CC00009021097C9F0E8E0F1E09B01AD014E0F09
:107CD0005F1FF999FECF32BD21BD819180BDFA9A17
:107CE000F99A2F5F3F4FE417F50799F76A0F7B1F4B
:107CF00070930701609306018091C00085FFFCCF5F
:107D0000F092C6008091C00085FFFCCFB092C60003
:107D1000E1CE83E00E94C73CDDCE82E00E94C73CFA
:107D2000D9CE0E94763C809309020E94763C8093D3
:107D300008028091060190910701880F991F909386
:107D40000701809306010E94763C853409F4A6C0A1
:107D500080910C028E7F80930C020E94763C8032D0
:107D600009F0B8CE8091C00085FFFCCFF092C6002C
:107D7000609108027091090261157105B9F140E046
:107D800050E080910C02A82FA170B82FB27011C0E2
:107D9000BB2309F45CC0E0910601F0910701319624
:107DA000F0930701E09306014F5F5F4F46175707B7
:107DB000E8F4AA2369F3F999FECF209106013091E6
:107DC000070132BD21BDF89A90B58091C00085FFB2
:107DD000FCCF9093C6002F5F3F4F30930701209355
:107DE00006014F5F5F4F4617570718F38091C00099
:107DF00085FDE5CE8091C00085FFF8CFE0CE81E023
:107E00000E94C73C67CE0E94763C803209F08CCE3F
:107E10008091C00085FFFCCFF092C6008091C00029
:107E200085FFFCCFE092C6008091C00085FFFCCFAB
:107E3000D092C6008091C00085FFFCCFC092C600E2
:107E40008091C00085FFFCCFB092C60043CEE09188
:107E50000601F091070194918091C00085FFFCCF4D
:107E60009093C6009CCF80E10E94C73C33CE0E9415
:107E7000763C0E94763C182F0E94763C112309F430
:107E800083C0113009F484C08FE00E94C73C22CE29
:107E900080910C02816080930C02E5CE80910C02EF
:107EA000816080930C0259CF809107018823880F4D
:107EB000880B8A2180930B02809106019091070123
:107EC000880F991F90930701809306018091080203
:107ED00080FF09C080910802909109020196909359
:107EE000090280930802F894F999FECF1127E091D6
:107EF0000601F0910701C8E0D1E08091080290915D
:107F00000902103091F40091570001700130D9F34B
:107F100003E000935700E89500915700017001308D
:107F2000D9F301E100935700E89509901990009169
:107F3000570001700130D9F301E000935700E89534
:107F40001395103498F011270091570001700130FB
:107F5000D9F305E000935700E895009157000170B0
:107F60000130D9F301E100935700E895329602976A
:107F700009F0C7CF103011F00296E5CF112480919F
:107F8000C00085FFB9CEBCCE8EE10E94C73CA2CD19
:0C7F900085E90E94C73C9ECDF894FFCF0D
:027F9C00800063
:040000030000780081
:00000001FF