:100000000C945D000C9485000C9485000C94850084
:100010000C9485000C9485000C9485000C9485004C
:100020000C9485000C9485000C9485000C9485003C
:100030000C9485000C9485000C9485000C9485002C
:100040000C94D4020C9485000C94A2020C947C02B3
:100050000C9485000C9485000C9485000C9485000C
:100060000C9485000C94850000000008000201003B
:100070000003040700000000000000000000000072
:10008000250028002B0000000000240027002A0083
:10009000040404040404040402020202020203032E
:1000A0000303030301020408102040800102040836
:1000B00010200102040810209B0411241FBECFEF62
:1000C000D8E0DEBFCDBF11E0A0E0B1E0EAEAF9E0A0
:1000D00002C005900D92A831B107D9F721E0A8E13F
:1000E000B1E001C01D92A13CB207E1F710E0CDE5FF
:1000F000D0E004C02197FE010E94C804CC35D1078E
:10010000C9F70E941E030C94D3040C940000CF92F4
:10011000DF92EF92FF920F931F93CF93DF936C01C7
:100120007A018B01C0E0D0E0CE15DF0581F0D80167
:100130006D918D01D601ED91FC910190F081E02D42
:10014000C6010995892B11F02196EECF7E01C701DA
:10015000DF91CF911F910F91FF90EF90DF90CF90A3
:100160000895089580E090E00895FC01538D448D3A
:10017000252F30E0842F90E0821B930B541710F052
:10018000CF96089501970895FC01918D828D98175F
:1001900061F0828DDF01A80FB11D5D968C91928D6B
:1001A0009F5F9F73928F90E008958FEF9FEF089568
:1001B000FC01918D828D981731F0828DE80FF11D31
:1001C000858D90E008958FEF9FEF0895FC01918D4C
:1001D000228D892F90E0805C9F4F821B91098F7345
:1001E0009927089584E291E00E94E60021E0892B9E
:1001F00009F420E0822F0895FC01848DDF01A80F0F
:10020000B11DA35ABF4F2C91848D90E001968F733E
:100210009927848FA689B7892C93A089B1898C915D
:10022000837080648C93938D848D981306C00288AC
:10023000F389E02D80818F7D80830895EF92FF9276
:100240000F931F93CF93DF93EC0181E0888F9B8DF9
:100250008C8D981305C0E889F989808185FD26C0B9
:10026000F62E0B8D10E00F5F1F4F0F731127E02E3E
:100270008C8DE8120CC00FB607FCFACFE889F9891B
:10028000808185FFF5CFCE010E94FC00F1CF8B8DE0
:10029000FE01E80FF11DE35AFF4FF0829FB7F8947B
:1002A0000B8FEA89FB89808180620AC09FB7F8942E
:1002B000EE89FF896083E889F98980818370806491
:1002C00080839FBF81E090E0DF91CF911F910F91DC
:1002D000FF90EF900895CF93DF93EC01888D8823F2
:1002E000C9F0EA89FB89808185FD05C0A889B989A3
:1002F0008C9186FD0FC00FB607FCF5CF808185FF7E
:10030000F2CFA889B9898C9185FFEDCFCE010E94EB
:10031000FC00E7CFDF91CF91089580E090E0892B3A
:1003200029F00E94F20081110C94000008953FB75B
:10033000F89480911D0190911E01A0911F01B09130
:10034000200126B5A89B05C02F3F19F00196A11DDD
:10035000B11D3FBFBA2FA92F982F8827820F911D5B
:10036000A11DB11DBC01CD0142E0660F771F881FA2
:10037000991F4A95D1F708958F929F92AF92BF929D
:10038000CF92DF92EF92FF926B017C010E94970166
:100390004B015C01C114D104E104F104F1F00E94AD
:1003A0009701DC01CB0188199909AA09BB09883E8C
:1003B0009340A105B10570F321E0C21AD108E1080C
:1003C000F10888EE880E83E0981EA11CB11CC114B0
:1003D000D104E104F10419F7DDCFFF90EF90DF9035
:1003E000CF90BF90AF909F908F90089558E04F9915
:1003F000FECF48E000004A954030E1F7000C4F9BEB
:1004000002C0039402C04F9BFECF5A95503079F73B
:10041000809100000895000000000000000000002E
:1004200000000000000000000000000000000000CC
:1004300000000000000000000000000000000000BC
:1004400000000000000000000000000000000000AC
:10045000000000000000000000000000000000009C
:1004600000000000000000000000089500000000EF
:1004700000000000000000000895009769F0FC01F2
:1004800001900020E9F73197AF01481B590BBC01DF
:1004900084E291E00C94870080E090E008950E944F
:1004A000CE04FF920F931F93CF93DF93CDB7DEB7A8
:1004B000A1970FB6F894DEBF0FBECDBFF82E08E0AF
:1004C00010E019A28F2D881F8827881F805D88A3C0
:1004D000CE0180960E943D02FF0C0150110989F760
:1004E000A1960FB6F894DEBF0FBECDBFDF91CF91BE
:1004F0001F910F91FF9008951F920F920FB60F92C8
:1005000011242F933F934F935F936F937F938F9318
:100510009F93AF93BF93EF93FF9384E291E00E9488
:10052000FC00FF91EF91BF91AF919F918F917F91CF
:100530006F915F914F913F912F910F900FBE0F9050
:100540001F9018951F920F920FB60F9211242F93A0
:100550008F939F93EF93FF93E0913401F0913501D6
:100560008081E0913A01F0913B0182FD12C09081BF
:1005700080913D018F5F8F7320913E01821751F072
:10058000E0913D01F0E0EC5DFE4F958F80933D01E1
:1005900001C08081FF91EF919F918F912F910F90DA
:1005A0000FBE0F901F9018951F920F920FB60F92CB
:1005B00011242F933F938F939F93AF93BF93809179
:1005C000190190911A01A0911B01B0911C01309169
:1005D000180123E0230F2D3720F40196A11DB11D32
:1005E00005C026E8230F0296A11DB11D2093180116
:1005F0008093190190931A01A0931B01B0931C01E1
:1006000080911D0190911E01A0911F01B0912001C8
:100610000196A11DB11D80931D0190931E01A09311
:100620001F01B0932001BF91AF919F918F913F9196
:100630002F910F900FBE0F901F901895789484B54E
:10064000826084BD84B5816084BD85B5826085BDCE
:1006500085B5816085BD80916E00816080936E005C
:10066000109281008091810082608093810080914E
:1006700081008160809381008091800081608093FF
:1006800080008091B10084608093B1008091B000BF
:1006900081608093B00080917A00846080937A00BA
:1006A00080917A00826080937A0080917A008160E4
:1006B00080937A0080917A00806880937A0010920B
:1006C000C100E0913401F091350182E08083E09136
:1006D0003001F09131011082E0913201F09133014B
:1006E0008FEC808310923C01E0913801F091390148
:1006F00086E08083E0913601F0913701808180614E
:100700008083E0913601F091370180818860808399
:10071000E0913601F0913701808180688083E0911B
:100720003601F091370180818F7D8083EFE6F0E024
:1007300024914BEA50E0FA01649187E990E0FC01D2
:1007400074917723B9F1222339F1233091F038F4F1
:100750002130A9F0223001F534B53F7D12C0273099
:1007600091F02830A1F02430B9F4309180003F7D21
:1007700003C0309180003F77309380000DC034B5C6
:100780003F7734BD09C03091B0003F7703C030914E
:10079000B0003F7D3093B000E72FF0E0EE0FFF1F79
:1007A000E458FF4FA591B4913FB7F8942C91262BB4
:1007B0002C933FBFFA014491FC018491882399F066
:1007C00090E0880F991FFC01EA57FF4FA591B49163
:1007D000FC01E458FF4F859194919FB7F8948C9158
:1007E000482B4C939FBFC0E880912301882349F098
:1007F00060ED77E080E090E00E94BC011092230160
:1008000006C068EE73E080E090E00E94BC0168EEF4
:1008100073E080E090E00E94BC01F894579ACBB955
:100820001BB80E940B02CBB90E9436021BB80E9473
:100830000B02CBB90E9436021BB80E940B02CBB947
:100840000E9436021BB80E940B02CBB90E943602EE
:100850001BB80E940B02CBB90E9436021BB80E9443
:100860000B02CBB90E9436021BB80E940B02CBB917
:100870000E9436021BB80E943602CBB90E940B02BE
:100880001BB80E943602CBB9000000000000000037
:100890000000000000000000000000000000000058
:1008A0000000000000000000000000000000000048
:1008B0000000000000000000000000000000000038
:1008C00000000000000000005798CBB90E94F6011C
:1008D000F82E0E94F601082F0E94F601182F0E94A0
:1008E000F601D82F78948F2D0E94510282E191E079
:1008F0000E943D02802F0E94510282E191E00E94FD
:100900003D02812F0E94510282E191E00E943D024E
:100910008D2F0E94510284E191E00E943D0280915E
:10092000210190912201019690932201809321014F
:100930000E948D0159CFE4E2F1E01382128288EE29
:1009400093E0A0E0B0E084839583A683B78384E03E
:1009500091E09183808385EC90E09587848784EC97
:1009600090E09787868780EC90E0918B808B81EC7C
:1009700090E0938B828B82EC90E0958B848B86EC5D
:1009800090E0978B868B118E128E138E148E0895A5
:10099000EE0FFF1F0590F491E02D099481E090E0A7
:0A09A000F8940C94D304F894FFCFF0
:1009AA00000000001E018700B5006B01E600C400CC
:0809BA00D80020000D0A000026
:107800000C94343C0C94513C0C94513C0C94513CE1
:107810000C94513C0C94513C0C94513C0C94513CB4
:107820000C94513C0C94513C0C94513C0C94513CA4
:107830000C94513C0C94513C0C94513C0C94513C94
:107840000C94513C0C94513C0C94513C0C94513C84
:107850000C94513C0C94513C0C94513C0C94513C74
:107860000C94513C0C94513C11241FBECFEFD8E036
:10787000DEBFCDBF11E0A0E0B1E0ECE9FFE702C060
:1078800005900D92A230B107D9F712E0A2E0B1E065
:1078900001C01D92AD30B107E1F70E942D3D0C945F
:1078A000CC3F0C94003C982F959595959595959582
:1078B000905D8F708A307CF0282F295A8091C0000B
:1078C00085FFFCCF9093C6008091C00085FFFCCF60
:1078D0002093C6000895282F205DF0CF982F809127
:1078E000C00085FFFCCF9093C6000895EF92FF92F1
:1078F0000F931F93EE24FF2487018091C00087FD22
:1079000017C00894E11CF11C011D111D81E4E8164B
:1079100082E4F8068FE0080780E0180770F3E09132
:107920000401F091050109958091C00087FFE9CF1E
:107930008091C6001F910F91FF90EF9008950E94D3
:10794000763C982F8091C00085FFFCCF9093C600B5
:1079500091362CF490330CF09053892F089597555D
:10796000892F08951F930E949F3C182F0E949F3CCF
:107970001295107F810F1F9108951F93182F882350
:1079800021F00E94763C1150E1F71F9108951F935A
:10799000182F0E94763C803249F0809103018F5F5E
:1079A000809303018530C1F01F9108958091C0003C
:1079B00085FFFCCF84E18093C6008091C00085FFE5
:1079C000FCCF1093C6008091C00085FFFCCF80E102
:1079D0008093C6001F910895E0910401F091050184
:1079E00009951F9108950E94763C803241F0809164
:1079F00003018F5F80930301853081F008958091AA
:107A0000C00085FFFCCF84E18093C6008091C00058
:107A100085FFFCCF80E18093C6000895E0910401CA
:107A2000F09105010995089540E951E08823A1F0FE
:107A30002D9A28EE33E0FA013197F1F721503040CA
:107A4000D1F72D9828EE33E0FA013197F1F7215064
:107A50003040D1F7815061F708953F924F925F9285
:107A60006F927F928F929F92AF92BF92CF92DF924E
:107A7000EF92FF920F931F93CF93DF93000080E16B
:107A80008093C4001092C50088E18093C10086E015
:107A90008093C2005098589A259A81E00E94143D24
:107AA00024E1F22E9EE1E92E85E9D82E0FE0C02ECA
:107AB00010E1B12EAA24A394B1E49B2EA6E58A2E50
:107AC000F2E57F2EE0E26E2E79E4572E63E5462E36
:107AD00050E5352E0E94763C8033B1F18133B9F107
:107AE000803409F46FC0813409F476C0823409F41B
:107AF00085C0853409F488C0803531F1823521F1A3
:107B0000813511F1853509F485C0863509F48DC0BC
:107B1000843609F496C0843709F403C1853709F423
:107B200072C1863709F466C0809103018F5F80932C
:107B30000301853079F6E0910401F0910501099582
:107B40000E94763C803351F60E94F33CC3CF0E94E2
:107B5000763C803249F78091C00085FFFCCFF092DF
:107B6000C6008091C00085FFFCCF9092C600809136
:107B7000C00085FFFCCF8092C6008091C00085FFC9
:107B8000FCCF7092C6008091C00085FFFCCF609250
:107B9000C6008091C00085FFFCCF5092C600809146
:107BA000C00085FFFCCF4092C6008091C00085FFD9
:107BB000FCCF3092C6008091C00085FFFCCFB09210
:107BC000C60088CF0E94763C863808F4BDCF0E945C
:107BD000763C0E94F33C7ECF0E94763C803809F4CC
:107BE0009CC0813809F40BC1823809F43CC1883942
:107BF00009F48FC080E00E94C73C6CCF84E10E94F2
:107C0000BD3C0E94F33C66CF85E00E94BD3C0E94D3
:107C1000F33C60CF0E94763C809306010E94763C44
:107C2000809307010E94F33C55CF0E94763C80333D
:107C300009F41DC183E00E94BD3C80E00E94C73C66
:107C400049CF0E94763C809309020E94763C809343
:107C5000080280910C028E7F80930C020E94763C79
:107C6000853409F415C18091080290910902892B8D
:107C700089F000E010E00E94763CF801E85FFE4FDA
:107C800080830F5F1F4F80910802909109020817AF
:107C9000190788F30E94763C803209F045CF809125
:107CA0000C0280FF01C16091060170910701660F0F
:107CB000771F7093070160930601A0910802B091AD
:107CC00009021097C9F0E8E0F1E09B01AD014E0F09
:107CD0005F1FF999FECF32BD21BD819180BDFA9A17
:107CE000F99A2F5F3F4FE417F50799F76A0F7B1F4B
:107CF00070930701609306018091C00085FFFCCF5F
:107D0000F092C6008091C00085FFFCCFB092C60003
:107D1000E1CE83E00E94C73CDDCE82E00E94C73CFA
:107D2000D9CE0E94763C809309020E94763C8093D3
:107D300008028091060190910701880F991F909386
:107D40000701809306010E94763C853409F4A6C0A1
:107D500080910C028E7F80930C020E94763C8032D0
:107D600009F0B8CE8091C00085FFFCCFF092C6002C
:107D7000609108027091090261157105B9F140E046
:107D800050E080910C02A82FA170B82FB27011C0E2
:107D9000BB2309F45CC0E0910601F0910701319624
:107DA000F0930701E09306014F5F5F4F46175707B7
:107DB000E8F4AA2369F3F999FECF209106013091E6
:107DC000070132BD21BDF89A90B58091C00085FFB2
:107DD000FCCF9093C6002F5F3F4F30930701209355
:107DE00006014F5F5F4F4617570718F38091C00099
:107DF00085FDE5CE8091C00085FFF8CFE0CE81E023
:107E00000E94C73C67CE0E94763C803209F08CCE3F
:107E10008091C00085FFFCCFF092C6008091C00029
:107E200085FFFCCFE092C6008091C00085FFFCCFAB
:107E3000D092C6008091C00085FFFCCFC092C600E2
:107E40008091C00085FFFCCFB092C60043CEE09188
:107E50000601F091070194918091C00085FFFCCF4D
:107E60009093C6009CCF80E10E94C73C33CE0E9415
:107E7000763C0E94763C182F0E94763C112309F430
:107E800083C0113009F484C08FE00E94C73C22CE29
:107E900080910C02816080930C02E5CE80910C02EF
:107EA000816080930C0259CF809107018823880F4D
:107EB000880B8A2180930B02809106019091070123
:107EC000880F991F90930701809306018091080203
:107ED00080FF09C080910802909109020196909359
:107EE000090280930802F894F999FECF1127E091D6
:107EF0000601F0910701C8E0D1E08091080290915D
:107F00000902103091F40091570001700130D9F34B
:107F100003E000935700E89500915700017001308D
:107F2000D9F301E100935700E89509901990009169
:107F3000570001700130D9F301E000935700E89534
:107F40001395103498F011270091570001700130FB
:107F5000D9F305E000935700E895009157000170B0
:107F60000130D9F301E100935700E895329602976A
:107F700009F0C7CF103011F00296E5CF112480919F
:107F8000C00085FFB9CEBCCE8EE10E94C73CA2CD19
:0C7F900085E90E94C73C9ECDF894FFCF0D
:027F9C00800063
:040000030000780081
:00000001FF