:100000000C9462000C948A000C948A000C948A0070
:100010000C948A000C948A000C948A000C948A0038
:100020000C948A000C948A000C948A000C948A0028
:100030000C948A000C948A000C948A000C948A0018
:100040000C9493030C948A000C9461030C943B036E
:100050000C948A000C948A000C948A000C948A00F8
:100060000C948A000C948A000000000024002700F1
:100070002A0000000000250028002B0000000000DE
:1000800023002600290004040404040404040202DA
:100090000202020203030303030301020408102007
:1000A0004080010204081020010204081020000012
:1000B0000008000201000003040700000000000027
:1000C0000000DD0311241FBECFEFD8E0DEBFCDBF9F
:1000D00026E0A8E4B1E001C01D92A633B207E1F723
:1000E00011E0A0E0B1E0ECEEFDE002C005900D9261
:1000F000A834B107D9F710E0C2E6D0E004C02197D8
:10010000FE010E94E906C136D107C9F70E941C040E
:100110000C94F4060C940000E1E5F5E0A089B189A7
:1001200082E08C93A485B5851C92A685B7858FEC5B
:100130008C93108EA489B58986E08C93A289B389AB
:100140008C9180618C93A289B3898C9188608C9307
:10015000A289B3898C9180688C930288F389E02D01
:1001600080818F7D80830895CF92DF92EF92FF92FE
:100170000F931F93CF93DF936C017A018B01C0E043
:10018000D0E0CE15DF0581F0D8016D918D01D6014B
:10019000ED91FC910190F081E02DC6010995892B2C
:1001A00011F02196EECF7E01C701DF91CF911F9113
:1001B0000F91FF90EF90DF90CF900895089580E029
:1001C00090E00895FC01538D448D252F30E0842F5D
:1001D00090E0821B930B541710F0CF96089501976F
:1001E0000895FC01918D828D981761F0828DDF0159
:1001F000A80FB11D5D968C91928D9F5F9F73928F1A
:1002000090E008958FEF9FEF0895FC01918D828D0E
:10021000981731F0828DE80FF11D858D90E00895DB
:100220008FEF9FEF0895FC01918D228D892F90E033
:10023000805C9F4F821B91098F739927089581E5F8
:1002400095E00E94130121E0892B09F420E0822F20
:100250000895FC01848DDF01A80FB11DA35ABF4F83
:100260002C91848D90E001968F739927848FA689B5
:10027000B7892C93A089B1898C91837080648C9309
:10028000938D848D981306C00288F389E02D8081B8
:100290008F7D80830895EF92FF920F931F93CF93EA
:1002A000DF93EC0181E0888F9B8D8C8D981305C0C6
:1002B000E889F989808185FD26C0F62E0B8D10E036
:1002C0000F5F1F4F0F731127E02E8C8DE8120CC0AB
:1002D0000FB607FCFACFE889F989808185FFF5CF51
:1002E000CE010E942901F1CF8B8DFE01E80FF11D97
:1002F000E35AFF4FF0829FB7F8940B8FEA89FB898E
:10030000808180620AC09FB7F894EE89FF8960837C
:10031000E889F98980818370806480839FBF81E050
:1003200090E0DF91CF911F910F91FF90EF90089592
:10033000CF93DF93EC01888D8823C9F0EA89FB898C
:10034000808185FD05C0A889B9898C9186FD0FC083
:100350000FB607FCF5CF808185FFF2CFA889B98958
:100360008C9185FFEDCFCE010E942901E7CFDF916F
:10037000CF91089580E090E0892B29F00E941F0121
:1003800081110C9400000895833081F028F48130AD
:1003900099F08230A1F008958730A9F08830B9F043
:1003A0008430D1F4809180008F7D03C080918000E3
:1003B0008F7780938000089584B58F7702C084B5CD
:1003C0008F7D84BD08958091B0008F7703C08091A8
:1003D000B0008F7D8093B0000895CF93DF93282FD6
:1003E00030E0F901E255FF4F8491F901E656FF4FE5
:1003F000D491F901EA57FF4FC491CC2391F08111B8
:100400000E94C401EC2FF0E0EE0FFF1FE458FF4FF5
:10041000A591B491EC91ED2381E090E021F480E08E
:1004200002C080E090E0DF91CF9108951F93CF93B9
:10043000DF93282F30E0F901E255FF4F8491F90155
:10044000E656FF4FD491F901EA57FF4FC491CC23F0
:10045000C1F0162F81110E94C401EC2FF0E0EE0FC5
:10046000FF1FEE58FF4FA591B4919FB7F89411115B
:1004700004C08C91D095D82302C0EC91DE2BDC9384
:100480009FBFDF91CF911F910895CF93DF9390E0AD
:10049000FC01E656FF4F2491FC01EA57FF4F84917F
:1004A000882361F190E0880F991FFC01E859FF4F04
:1004B000C591D491FC01EE58FF4FA591B491611103
:1004C00009C09FB7F8948881209582238883EC9196
:1004D0002E230BC0623061F49FB7F8948881322FCD
:1004E000309583238883EC912E2B2C939FBF06C0DD
:1004F0008FB7F894E8812E2B28838FBFDF91CF919F
:1005000008953FB7F89480914D0190914E01A091CC
:100510004F01B091500126B5A89B05C02F3F19F09F
:100520000196A11DB11D3FBFBA2FA92F982F882773
:10053000820F911DA11DB11DBC01CD0142E0660FCE
:10054000771F881F991F4A95D1F708952FB7F89400
:100550006091490170914A0180914B0190914C0149
:100560002FBF08958F929F92AF92BF92CF92DF924A
:10057000EF92FF926B017C010E94A6024B015C018D
:10058000C60ED71EE81EF91E0E94A6026815790540
:100590008A059B0528F0C616D706E806F906A0F7D7
:1005A000FF90EF90DF90CF90BF90AF909F908F9093
:1005B00008950E94EF066115710579F0FB01019025
:1005C0000020E9F73197AF01461B570BDC01ED9195
:1005D000FC910280F381E02D099480E090E0089581
:1005E0008F929F92AF92BF92EF92FF920F931F93C1
:1005F000CF93DF93CDB7DEB7A1970FB6F894DEBFE8
:100600000FBECDBF7C01FA01CB0119A2223008F444
:100610002AE08E010F5D1F4F822E912CA12CB12C50
:10062000BF01A50194010E94C706F901CA0101504A
:1006300011096A3014F4605D01C0695CD8016C93E3
:10064000232B242B252B61F7B801C7010E94DB0265
:10065000A1960FB6F894DEBF0FBECDBFDF91CF914C
:100660001F910F91FF90EF90BF90AF909F908F9050
:1006700008950C94DB021F920F920FB60F92112473
:100680002F933F934F935F936F937F938F939F939A
:10069000AF93BF93EF93FF9381E595E00E9429010B
:1006A000FF91EF91BF91AF919F918F917F916F914A
:1006B0005F914F913F912F910F900FBE0F901F9020
:1006C00018951F920F920FB60F9211242F938F93AC
:1006D0009F93EF93FF93E0916105F0916205808114
:1006E000E0916705F091680582FD12C090818091CC
:1006F0006A058F5F8F7320916B05821751F0E0912F
:100700006A05F0E0EF5AFA4F958F80936A0501C0B1
:100710008081FF91EF919F918F912F910F900FBE4C
:100720000F901F9018951F920F920FB60F921124E1
:100730002F933F938F939F93AF93BF9380914901E2
:1007400090914A01A0914B01B0914C013091480128
:1007500023E0230F2D3720F40196A11DB11D05C004
:1007600026E8230F0296A11DB11D20934801809316
:10077000490190934A01A0934B01B0934C018091A1
:100780004D0190914E01A0914F01B0915001019601
:10079000A11DB11D80934D0190934E01A0934F0177
:1007A000B0935001BF91AF919F918F913F912F9145
:1007B0000F900FBE0F901F901895E1E5F5E01382A2
:1007C000128288EE93E0A0E0B0E084839583A68354
:1007D000B78384E091E09183808385EC90E09587F6
:1007E000848784EC90E09787868780EC90E0918BFB
:1007F000808B81EC90E0938B828B82EC90E0958BE8
:10080000848B86EC90E0978B868B118E128E138EE4
:10081000148EEEEEF5E0168217821086118612868F
:1008200013861486158616861786108A118A128AF0
:10083000138A148A158A0895789484B5826084BDD9
:1008400084B5816084BD85B5826085BD85B58160D4
:1008500085BD80916E00816080936E001092810052
:10086000809181008260809381008091810081600D
:1008700080938100809180008160809380008091CE
:10088000B10084608093B1008091B000816080935A
:10089000B00080917A00846080937A0080917A0021
:1008A000826080937A0080917A00816080937A00E0
:1008B00080917A00806880937A001092C100109233
:1008C00032061092330610923406109235061092BA
:1008D000F0051092F1051092F2051092F30568EB05
:1008E0007BE080E090E00E94B20281E595E0909389
:1008F0003106809330060E948C000E94A60260930D
:10090000F0057093F1058093F2059093F30562E191
:1009100071E080913006909131060E9439036AE0BF
:1009200070E080E090E00E94B20281E080930406D3
:100930000E948C0061E08DE00E94450261E08DE044
:100940000E94160221E2422E512C612C712C33E0C0
:10095000232E312C61E08DE00E94450261E08DE0A4
:100960000E94160224EF31E040E050E02093FC05A5
:100970003093FD054093FE055093FF05109200064D
:100980001092010610920206109203068091F4055F
:100990009091F505A091F605B091F7058093F805C3
:1009A0009093F905A093FA05B093FB050E94A60267
:1009B0006093F4057093F5058093F6059093F70521
:1009C00062E070E080E090E00E94B2026AE070E0D5
:1009D00080E090E00E94B20235E6309305068091F7
:1009E0000506833609F43FC1853609F0C9C08091F8
:1009F000000690910106A0910206B09103060196AF
:100A0000A11DB11D8093000690930106A0930206DC
:100A1000B09303064091FC055091FD056091FE05E1
:100A20007091FF05452B462B472B29F4892B8A2BE8
:100A30008B2B09F0A5C00E94A6020091F005109131
:100A4000F1052091F2053091F305DC01CB01801B0B
:100A5000910BA20BB30B81329105A105B10550F4A6
:100A6000A3019201281B390B4A0B5B0BCA01B90188
:100A70000E94B2020E94A6026093F0057093F105F5
:100A80008093F2059093F3050E94A6026B017C010E
:100A900064E271E080913006909131060E94390342
:100AA0002AE041E050E060E070E0809130069091F3
:100AB00031060E94F0026BE271E080913006909165
:100AC00031060E9439032AE0B701A6018091300661
:100AD000909131060E94F0026DE271E08091300643
:100AE000909131060E9439038091F4059091F505AB
:100AF000A091F605B091F705B701A601481B590B67
:100B00006A0B7B0B2AE080913006909131060E949F
:100B1000F0026DE271E080913006909131060E9402
:100B200039034091F4055091F5056091F6057091F7
:100B3000F7058091F8059091F905A091FA05B0911B
:100B4000FB05481B590B6A0B7B0B2AE08091300692
:100B5000909131060E94F002C0913006D09131068A
:100B60006FE271E0CE010E94DB0263E471E0CE012E
:100B70000E94DB0264EF71E080E090E00E94B2022C
:100B80006AE070E080E090E00E94B202809104068A
:100B9000882309F464C08091300690913106DC010D
:100BA000ED91FC910084F185E02D0995811117C02C
:100BB00085E656C08091300690913106DC01ED91BA
:100BC000FC910284F385E02D0995883609F447C02D
:100BD000A0F0813709F443C0863709F441C0809101
:100BE000300690913106DC01ED91FC910084F18595
:100BF000E02D09958111DECFDBCF883571F1833689
:100C000071F70E94A6026093F0057093F10580933E
:100C1000F2059093F30566E371E0809130069091C0
:100C200031060E9439032AE041E050E060E070E0C4
:100C300080913006909131060E94F0026DE371E0E0
:100C400080913006909131060E94390362E370E092
:100C500080E090E00E94B20202C01092040683E697
:100C600080930506BCCE0E94A6026093F4057093A3
:100C7000F5058093F6059093F705C8E0D0E060E0B5
:100C80008DE00E94160287E090E00197F1F761E0A5
:100C90008DE00E941602219791F760E08DE00E949E
:100CA000160261E08DE00E941602C1010197F1F782
:100CB00060E08DE00E94450261E08DE00E94160236
:100CC00001E511E0E80198E0E92EF12CC10101975E
:100CD000F1F78DE00E94ED019881890F88838823C8
:100CE00029F0B1E0EB1AF10889F706C08DE00E9407
:100CF000ED01892BD9F3F5CF2196E1E0C335DE076D
:100D000011F7D8014D918D01042E000C550B660B87
:100D1000770B20E181E595E00E94F00266E471E046
:100D200081E595E00E943903B1E004351B0749F7DE
:100D300063E471E081E595E00E94DB020E9481029C
:100D40006B017C0182E0882E912CA12CB12C0E9499
:100D50008102DC01CB018C199D09AE09BF09883ED7
:100D60009340A105B10598F3E1E08E1A9108A1081E
:100D7000B108F8EECF0EF3E0DF1EE11CF11C811488
:100D80009104A104B10419F70E94BA01E3CDA1E2D4
:100D90001A2EAA1BBB1BFD010DC0AA1FBB1FEE1FF5
:100DA000FF1FA217B307E407F50720F0A21BB30B40
:100DB000E40BF50B661F771F881F991F1A9469F7BC
:100DC00060957095809590959B01AC01BD01CF0118
:100DD0000895EE0FFF1F0590F491E02D099481E036
:0C0DE00090E0F8940C94F406F894FFCF17
:100DEC00000000004B01B400E20098011301F10077
:100DFC000501564D4450565F317C315F564D445081
:100E0C00560D0A00564D4450455F003A323A005F89
:100E1C00564D44504500564D4450435F005F564D6F
:080E2C004450430D0A002000B0
:00000001FF
