:100000000C945D000C9485000C9485000C94850084
:100010000C9485000C9485000C9485000C9485004C
:100020000C9485000C9485000C9485000C9485003C
:100030000C9485000C9485000C9485000C9485002C
:100040000C945A020C9485000C9428020C94020221
:100050000C9485000C9485000C9485000C9485000C
:100060000C9485000C94850000000008000201003B
:100070000003040700000000000000000000000072
:10008000250028002B0000000000240027002A0083
:10009000040404040404040402020202020203032E
:1000A0000303030301020408102040800102040836
:1000B00010200102040810202A0411241FBECFEFD3
:1000C000D8E0DEBFCDBF11E0A0E0B1E0E8ECF8E0A1
:1000D00002C005900D92A231B107D9F721E0A2E14B
:1000E000B1E001C01D92A83BB207E1F710E0CDE5F9
:1000F000D0E004C02197FE010E945704CC35D107FF
:10010000C9F70E94A4020C9462040C940000CF92E0
:10011000DF92EF92FF920F931F93CF93DF936C01C7
:100120007A018B01C0E0D0E0CE15DF0581F0D80167
:100130006D918D01D601ED91FC910190F081E02D42
:10014000C6010995892B11F02196EECF7E01C701DA
:10015000DF91CF911F910F91FF90EF90DF90CF90A3
:100160000895089580E090E00895FC01538D448D3A
:10017000252F30E0842F90E0821B930B541710F052
:10018000CF96089501970895FC01918D828D98175F
:1001900061F0828DDF01A80FB11D5D968C91928D6B
:1001A0009F5F9F73928F90E008958FEF9FEF089568
:1001B000FC01918D828D981731F0828DE80FF11D31
:1001C000858D90E008958FEF9FEF0895FC01918D4C
:1001D000228D892F90E0805C9F4F821B91098F7345
:1001E000992708958BE191E00E94E60021E0892B98
:1001F00009F420E0822F0895FC01848DDF01A80F0F
:10020000B11DA35ABF4F2C91848D90E001968F733E
:100210009927848FA689B7892C93A089B1898C915D
:10022000837080648C93938D848D981306C00288AC
:10023000F389E02D80818F7D80830895EF92FF9276
:100240000F931F93CF93DF93EC0181E0888F9B8DF9
:100250008C8D981305C0E889F989808185FD26C0B9
:10026000F62E0B8D10E00F5F1F4F0F731127E02E3E
:100270008C8DE8120CC00FB607FCFACFE889F9891B
:10028000808185FFF5CFCE010E94FC00F1CF8B8DE0
:10029000FE01E80FF11DE35AFF4FF0829FB7F8947B
:1002A0000B8FEA89FB89808180620AC09FB7F8942E
:1002B000EE89FF896083E889F98980818370806491
:1002C00080839FBF81E090E0DF91CF911F910F91DC
:1002D000FF90EF900895CF93DF93EC01888D8823F2
:1002E000C9F0EA89FB89808185FD05C0A889B989A3
:1002F0008C9186FD0FC00FB607FCF5CF808185FF7E
:10030000F2CFA889B9898C9185FFEDCFCE010E94EB
:10031000FC00E7CFDF91CF91089580E090E0892B3A
:1003200029F00E94F20081110C94000008953FB75B
:10033000F8948091170190911801A0911901B09142
:100340001A0126B5A89B05C02F3F19F00196A11DE3
:10035000B11D3FBFBA2FA92F982F8827820F911D5B
:10036000A11DB11DBC01CD0142E0660F771F881FA2
:10037000991F4A95D1F70895000000000000000081
:10038000000000000000000000000000000000006D
:10039000000000000000000000000000000000005D
:1003A000000000000000000000000000000000004D
:1003B000000000000000000000000000000000003D
:1003C0000000000000000000000000000895000090
:1003D000000000000000000000000895009769F090
:1003E000FC0101900020E9F73197AF01481B590B40
:1003F000BC018BE191E00C94870080E090E00895CF
:100400000E945D041F920F920FB60F9211242F933A
:100410003F934F935F936F937F938F939F93AF938C
:10042000BF93EF93FF938BE191E00E94FC00FF915B
:10043000EF91BF91AF919F918F917F916F915F915C
:100440004F913F912F910F900FBE0F901F901895D5
:100450001F920F920FB60F9211242F938F939F9399
:10046000EF93FF93E0912B01F0912C018081E091BB
:100470003101F091320182FD12C0908180913401EE
:100480008F5F8F7320913501821751F0E091340115
:10049000F0E0E55EFE4F958F8093340101C08081CE
:1004A000FF91EF919F918F912F910F900FBE0F9021
:1004B0001F9018951F920F920FB60F9211242F9331
:1004C0003F938F939F93AF93BF938091130190912C
:1004D0001401A0911501B09116013091120123E091
:1004E000230F2D3720F40196A11DB11D05C026E86C
:1004F000230F0296A11DB11D2093120180931301B9
:1005000090931401A0931501B093160180911701E7
:1005100090911801A0911901B0911A010196A11DA5
:10052000B11D8093170190931801A0931901B09306
:100530001A01BF91AF919F918F913F912F910F9091
:100540000FBE0F901F901895CF93DF93CDB7DEB7F6
:10055000A1970FB6F894DEBF0FBECDBF789484B5D7
:10056000826084BD84B5816084BD85B5826085BDAF
:1005700085B5816085BD80916E00816080936E003D
:10058000109281008091810082608093810080912F
:1005900081008160809381008091800081608093E0
:1005A00080008091B10084608093B1008091B000A0
:1005B00081608093B00080917A00846080937A009B
:1005C00080917A00826080937A0080917A008160C5
:1005D00080937A0080917A00806880937A001092EC
:1005E000C100E0912B01F0912C0182E08083E09129
:1005F0002701F09128011082E0912901F0912A0150
:100600008FEC808310923301E0912F01F091300143
:1006100086E08083E0912D01F0912E018081806140
:100620008083E0912D01F0912E018081886080838C
:10063000E0912D01F0912E01808180688083E0910E
:100640002D01F0912E0180818F7D8083EFE6F0E017
:1006500024914BEA50E0FA01649187E990E0FC01B3
:1006600074917723C9F1222349F12330A1F038F4A2
:100670002130B9F0223011F534B53F7D14C0273058
:10068000A1F02830B1F02430C9F4309180003F7DD2
:100690003093800013C0209180002F77209380003A
:1006A0000DC034B53F7734BD09C03091B0003F77FD
:1006B00003C03091B0003F7D3093B000E72FF0E0F1
:1006C000EE0FFF1FE458FF4FA591B4913FB7F89488
:1006D0002C91262B2C933FBFFA014491FC0184916D
:1006E000882399F090E0880F991FFC01EA57FF4F8B
:1006F000A591B491FC01E458FF4F859194919FB767
:10070000F8948C91482B4C939FBF0E9497014B010A
:100710005C0190EDC92E97E0D92EE12CF12C0E94BE
:100720009701DC01CB0188199909AA09BB09883E08
:100730009340A105B10598F3F1E0CF1AD108E10883
:10074000F10828EE820E23E0921EA11CB11CC114F8
:10075000D104E104F10419F7F894579A00E80BB9B1
:100760001BB80E94BC010BB90E94E7011BB80E9494
:10077000BC010BB90E94E7011BB80E94BC010BB978
:100780000E94E7011BB80E94BC010BB90E94E7015F
:100790001BB80E94BC010BB90E94E7011BB80E9464
:1007A000BC010BB90E94E7011BB80E94BC010BB948
:1007B0000E94E7011BB80E94BC010BB90E94E7012F
:1007C0001BB80E94E7010BB9000000000000000008
:1007D0000000000000000000000000000000000019
:1007E0000000000000000000000000000000000009
:1007F00000000000000000000000000000000000F9
:10080000000000000000000057980BB9789458E0F1
:100810004F9B03C00000FBCF40E14A954030E9F711
:100820004F9B02C000000394000C5A955030A1F772
:1008300088E0E82EF12C19A2812F8170805D88A3B9
:10084000CE0180960E94EE011595F1E0EF1AF108B5
:1008500091F7FFCFEBE1F1E01382128288EE93E093
:10086000A0E0B0E084839583A683B78384E091E021
:100870009183808385EC90E09587848784EC90E079
:100880009787868780EC90E0918B808B81EC90E05D
:10089000938B828B82EC90E0958B848B86EC90E03E
:1008A000978B868B118E128E138E148E0895EE0FF9
:1008B000FF1F0590F491E02D099481E090E0F894F9
:0808C0000C946204F894FFCFD0
:1008C800000000001E018700B5006B01E600C400AF
:0208D800D80046
:00000001FF
