:100000000C9435000C945D000C945D000C945D0024
:100010000C945D000C945D000C945D000C945D00EC
:100020000C945D000C945D000C945D000C945D00DC
:100030000C945D000C945D000C945D000C945D00CC
:100040000C947C020C945D000C944A020C942402E3
:100050000C945D000C945D000C945D000C945D00AC
:100060000C945D000C945D00C60211241FBECFEFFE
:10007000D8E0DEBFCDBF11E0A0E0B1E0EAE5F8E0F6
:1000800002C005900D92A431B107D9F721E0A4E197
:10009000B1E001C01D92A63CB207E1F710E0C5E354
:1000A000D0E004C02197FE010E942004C433D10790
:1000B000C9F70E94F6020C942B040C9400009AB12C
:1000C0008091C40189238AB958E04F99FECF46E058
:1000D00000004A954030E1F7000C4F9B02C00394AA
:1000E00002C04F9BFECF5A95503079F780910000A7
:1000F00008950000000000000000000000000895C6
:1001000000000000000000000000000000000000EF
:1001100000000000000000000000000000000000DF
:1001200000000000000000000000000000000000CF
:1001300000000000000000000000000000000000BF
:1001400000000000000000000000000000000000AF
:100150000000000008951BB80E9480008091C40137
:100160008BB90C947900CF92DF92EF92FF920F93AC
:100170001F93CF93DF936C017A018B01C0E0D0E035
:10018000CE15DF0581F0D8016D918D01D601ED917D
:10019000FC910190F081E02DC6010995892B11F0A9
:1001A0002196EECF7E01C701DF91CF911F910F9174
:1001B000FF90EF90DF90CF900895089580E090E059
:1001C0000895FC01538D448D252F30E0842F90E05D
:1001D000821B930B541710F0CF9608950197089542
:1001E000FC01918D828D981761F0828DDF01A80F3F
:1001F000B11D5D968C91928D9F5F9F73928F90E061
:1002000008958FEF9FEF0895FC01918D828D9817CF
:1002100031F0828DE80FF11D858D90E008958FEF0C
:100220009FEF0895FC01918D228D892F90E0805CD5
:100230009F4F821B91098F739927089587E291E060
:100240000E94120121E0892B09F420E0822F0895F9
:10025000FC01848DDF01A80FB11DA35ABF4F2C9163
:10026000848D90E001968F739927848FA689B78932
:100270002C93A089B1898C91837080648C93938D29
:10028000848D981306C00288F389E02D80818F7DCC
:1002900080830895EF92FF920F931F93CF93DF9384
:1002A000EC0181E0888F9B8D8C8D981305C0E889C7
:1002B000F989808185FD26C0F62E0B8D10E00F5F39
:1002C0001F4F0F731127E02E8C8DE8120CC00FB654
:1002D00007FCFACFE889F989808185FFF5CFCE0147
:1002E0000E942801F1CF8B8DFE01E80FF11DE35A2A
:1002F000FF4FF0829FB7F8940B8FEA89FB898081CA
:1003000080620AC09FB7F894EE89FF896083E8890C
:10031000F98980818370806480839FBF81E090E051
:10032000DF91CF911F910F91FF90EF900895CF93A0
:10033000DF93EC01888D8823C9F0EA89FB898081ED
:1003400085FD05C0A889B9898C9186FD0FC00FB6BF
:1003500007FCF5CF808185FFF2CFA889B9898C9100
:1003600085FFEDCFCE010E942801E7CFDF91CF912D
:10037000089580E090E0892B29F00E941E018111F0
:100380000C94000008953FB7F89480911901909162
:100390001A01A0911B01B0911C0126B5A89B05C0B4
:1003A0002F3F19F00196A11DB11D3FBFBA2FA92FF4
:1003B000982F8827820F911DA11DB11DBC01CD0171
:1003C00042E0660F771F881F991F4A95D1F708955D
:1003D0008F929F92AF92BF92CF92DF92EF92FF9255
:1003E0006B017C010E94C3014B015C01C114D1046B
:1003F000E104F104F1F00E94C301DC01CB01881992
:100400009909AA09BB09883E9340A105B10570F37B
:1004100021E0C21AD108E108F10888EE880E83E0D5
:10042000981EA11CB11CC114D104E104F10419F7F8
:10043000DDCFFF90EF90DF90CF90BF90AF909F9077
:100440008F9008950E9426041F920F920FB60F926C
:1004500011242F933F934F935F936F937F938F93C9
:100460009F93AF93BF93EF93FF9387E291E00E9436
:100470002801FF91EF91BF91AF919F918F917F9153
:100480006F915F914F913F912F910F900FBE0F9001
:100490001F9018951F920F920FB60F9211242F9351
:1004A0008F939F93EF93FF93E0913701F091380181
:1004B0008081E0913D01F0913E0182FD12C090816A
:1004C000809140018F5F8F7320914101821751F01D
:1004D000E0914001F0E0E95DFE4F958F809340018F
:1004E00001C08081FF91EF919F918F912F910F908B
:1004F0000FBE0F901F9018951F920F920FB60F927C
:1005000011242F933F938F939F93AF93BF93809129
:10051000150190911601A0911701B0911801309129
:10052000140123E0230F2D3720F40196A11DB11DE6
:1005300005C026E8230F0296A11DB11D20931401CA
:100540008093150190931601A0931701B0931801A1
:100550008091190190911A01A0911B01B0911C0189
:100560000196A11DB11D8093190190931A01A093CA
:100570001B01B0931C01BF91AF919F918F913F914F
:100580002F910F900FBE0F901F901895E7E2F1E0AA
:100590001382128288EE93E0A0E0B0E0848395831A
:1005A000A683B78385E091E09183808385EC90E01A
:1005B0009587848784EC90E09787868780EC90E02D
:1005C000918B808B81EC90E0938B828B82EC90E01E
:1005D000958B848B86EC90E0978B868B118E128E98
:1005E000138E148E80E88093C4010895789484B5A6
:1005F000826084BD84B5816084BD85B5826085BD1F
:1006000085B5816085BD80916E00816080936E00AC
:10061000109281008091810082608093810080919E
:10062000810081608093810080918000816080934F
:1006300080008091B10084608093B1008091B0000F
:1006400081608093B00080917A00846080937A000A
:1006500080917A00826080937A0080917A00816034
:1006600080937A0080917A00806880937A0010925B
:10067000C100E0913701F091380182E08083E09180
:100680003301F09134011082E0913501F09136018F
:1006900080E1808310923F01E0913B01F0913C01A9
:1006A00086E08083E0913901F0913A018081806198
:1006B0008083E0913901F0913A01808188608083E4
:1006C000E0913901F0913A01808180688083E09166
:1006D0003901F0913A0180818F7D80838091000102
:1006E000882341F060ED77E080E090E00E94E8012F
:1006F00010920001F8949AB18091C401892B8AB9B3
:100700008091C4018BB90E94AB000E94AB000E9493
:10071000AB000E94AB000E94AB000E94AB000E94A5
:10072000AB001BB80E9479008091C4018BB90E9474
:1007300080001BB80E9479008091C4018BB9000031
:1007400000000000000000000000000000000000A9
:100750000000000000000000000000000000000099
:100760000000000000000000000000000000000089
:1007700000000000000000000000000000009AB12E
:100780008091C40189238AB90E945F008093260169
:100790000E945F00809325010E945F0080932401E6
:1007A0000E945F00809323017894D09126018D2FC1
:1007B00082958F708069E82E80932201DF70D06867
:1007C000D0932101C09125018C2F82958F70806775
:1007D000F82E80932001CF70C066C0931F01009156
:1007E00024010E7F00931E011091230111601093CC
:1007F0001D016AE070E080E090E00E94E8016E2D4B
:1008000087E291E00E944A016D2F87E291E00E9409
:100810004A016F2D87E291E00E944A016C2F87E226
:1008200091E00E944A01602F87E291E00E944A0114
:10083000612F87E291E00E944A010E94B9014ECFE8
:10084000EE0FFF1F0590F491E02D099481E090E0F8
:0A085000F8940C942B04F894FFCFE9
:10085A0001000000004A01B300E10097011201F013
:04086A000004010085
:00000001FF
